:100000000C94BA020C94D7020C94D7020C946B1D7A
:100010000C94D7020C94D7020C94D7020C94D702FC
:100020000C94D7020C94D7020C9402190C94BE18AD
:100030000C94FF190C94D7020C94D7020C94D7029D
:100040000C94D7020C94D7020C94D7020C94D702CC
:100050000C94D7020C94DB190C94D7020C94D702A1
:100060000C94D7020C94D7020C94D7020C94D702AC
:100070000C94D7020C94D7020C94D7020C94D7029C
:100080000C94D7020C94D7020C94D7020C94D7028C
:100090000C94D7020C94D7020C94D7020C94D7027C
:1000A0000C94D7020C94D7020C94D70200001400D1
:1000B0001A00090013000500A25204281524162175
:1000C00017220A0000001D471B3406000700190014
:1000D00000000000000029432C412B4200003400A6
:1000E0001C0018000F000D00B25212280C24082129
:1000F0001122100000003847373436000B000E0084
:1001000000000000000033462A442845000000009B
:1001100000004852405200000000E300E200E0000E
:10012000E100000000000000E600000039000000CF
:1001300000000000000000000000000000007A0045
:100140007B007C007D00790000004F0052005100D0
:100150005000650000004D004B004E004A00490071
:100160000000000000004C002A00280000000000F1
:1001700000004852405200000000E300E200E000AE
:10018000E100000000000000E6000000390000006F
:1001900000000000000000000000000000007A00E5
:1001A0007B007C007D0079000000D000CD00CE00F7
:1001B000CF00B6000000D500D900DA00D400B700A7
:1001C000000000000000D300D100D20000000000B9
:1001D00000004852405200000000E300E200E0004E
:1001E000E100000000000000E6000000390000000F
:1001F00000000000000000000000000000007A0085
:100200007B007C007D0079000000AB00A900AA0003
:10021000AC004600000013700000B200B300000004
:10022000000000000000A800AE00AD0000002F009C
:1002300024002500260030000000330021002200A9
:1002400023002E00000035001E001F00200031009A
:10025000000000000000370027002D000000000013
:1002600000004852405200000000E300E200E000BD
:10027000E100000000000000E6000000390000007E
:100280000000000000000000000000000000350039
:1002900020022F0030003300230224021E02260217
:1002A0002702340000001F0222023602370231000A
:1002B00000000000000025022E002D0000000000BC
:1002C00000004852405200000000E300E200E0005D
:1002D000E100000000000000E6000000390000001E
:1002E00000000000000000000000000000004500C9
:1002F0004000410042004600000044003D003E0036
:100300003F004700000043003A003B003C0048002B
:1003100000000000000065002C002B000000000021
:1003200000004852405200000000E300E200E000FC
:10033000E100000000000000E600000039000000BD
:1003400000000000000000000000000000007A0033
:100350007B007C007D0079000000E300E200E0000B
:10036000E1000000000000007B007C007D007900BF
:10037000000000000000D300D100D20000007A008D
:100380007B007C007D0079000000E300E200E000DB
:10039000E1000000000000007B007C007D0079008F
:1003A000000000000000D300D100D200290014009A
:1003B0001A00080015001700E100040016000700ED
:1003C00009000A00E000E2001D001B000600190001
:1003D00000000000000040522C002B001E00130003
:1003E00012000C0018001C00340033000F000E0037
:1003F0000D000B003800370036001000110005001A
:1004000000000000000040522A00280005010902F7
:10041000A10185020901A10005091901290815009A
:100420002501950875018102050109300931158101
:10043000257F95027508810609381581257F95016C
:1004400075088106050C0A38021581257F9501750E
:10045000088106C0C005010980A101850319012A90
:10046000B700150126B700950175108100C0050C75
:100470000901A101850419012AA002150126A00283
:10048000950175108100C005010906A101850605C9
:100490000719E029E7150025019508750181020576
:1004A00007190029EF1500250195F0750181020556
:1004B00008190129059505750191029501750391AA
:1004C00001C005010906A101050719E029E715008A
:1004D00025019508750181029501750881010507BF
:1004E000190029FF150026FF0095067508810005F3
:1004F000081901290595057501910295017503916A
:1005000001C009023B00020100A0FA090400000139
:1005100003010100092111010001224000070581AA
:100520000308000109040100010300000009211172
:1005300001000122B600070582032000011201001C
:100540000200000008534601000100010200010CF6
:100550000343006F0072006E006500000010036628
:10056000006F006F007300740061006E00000004F3
:100570000309040011241FBECFEFDAE0DEBFCDBFB8
:1005800011E0A0E0B1E0EAE2FFE302C005900D92C5
:10059000A836B107D9F722E0A8E6B1E001C01D9264
:1005A000AC39B207E1F70E94261A0C94541F0C9440
:1005B0000000482F2091980290915F0257E0291384
:1005C00002C080E0089530E0529FF001539FF00D8B
:1005D0001124E05AFD4F8181681306C080814813C1
:1005E00003C085818111EECF2F5F3F4F2770E7CF8A
:1005F000FC01AC014C5F5F4F8FEF91E321918227AB
:1006000028E030E087FF09C0880F89272150310991
:10061000C9F7E417F50791F70895880FF7CFE8EDCC
:10062000F0E080818E7F80831092E2001092DA00E9
:100630001092E100A0EEB0E08C9181608C938081FB
:100640008F77808319BCA7EDB0E08C918E7F8C935F
:1006500080818F7E80831092300208952091E40083
:100660003091E50095E6A9012091EC00822F817080
:1006700020FF06C08091E80080FF06C080E008955A
:100680002091E80022FD1AC080915502882389F04C
:10069000853089F08091EB0085FD0FC02091E4004A
:1006A0003091E50042175307F9F29150E1F684E0EA
:1006B000089582E0089583E0089581E0089580918F
:1006C000570287FF13C08091E80082FF06C0809127
:1006D000E8008B778093E80004C080915502811177
:1006E000F2CF0895809155028823D9F38091E800D4
:1006F00080FFF8CF8091E8008E77ECCF982F909311
:10070000E900242F762F50E0891731F07091EC002A
:100710002091ED005091F00021FD07C09F5F9730C0
:1007200071F78093E90081E008953091EB003E7FFE
:100730003093EB003091ED003D7F3093ED00309130
:10074000EB0031603093EB007093EC002093ED00F0
:100750005093F0002091EE0027FDE0CF80E0089557
:10076000B0E0A0E0E6EBF3E00C94911EC8EDD0E021
:1007700088818F7E8883E7EDF0E0808181608083CF
:1007800084E082BF81E08093300288818E7F8883FD
:1007900002EE10E0F80110821092DA0081EEC82E0D
:1007A000D12CF601108288818F77888388818068B8
:1007B000888388818F7D888319BC1092550210929E
:1007C0005602109254021092530290EEE92EF12C30
:1007D000F70180818B7F808388818160888342E0FC
:1007E00060E080E00E947E03F60180818E7F80833E
:1007F000F801808181608083808188608083F70137
:1008000080818E7F8083888180618883CDB7DEB7C9
:10081000E8E00C94AD1EFC0180915D0290915E02B7
:1008200086179707A0F06115710529F49091E800EB
:100830009E779093E80090E06115710551F4911155
:1008400008C08091E80082FF34C080E00895BC01B8
:10085000F2CF809155028823C1F18530C1F180919A
:10086000E80083FD30C08091E80082FDEACF8091EE
:10087000E80080FFE1CF8091F3002091F200382F53
:100880006115710519F02830310558F091E02830D4
:10089000310509F090E02091E8002E772093E800E0
:1008A000CBCF81918093F100615071092F5F3F4F51
:1008B000E7CF80915502882341F0853041F0809147
:1008C000E80083FFBECF81E0089582E0089583E0D1
:1008D000089580913202089587E797E79093010881
:1008E0008093000888E19AE00FB6F894A895809369
:1008F00060000FBE90936000FFCF9C014FB7F8944B
:1009000080912A0290912B02A0912C02B0912D028D
:100910004FBF821B930B08952FB7F89460912A0262
:1009200070912B0280912C0290912D022FBF08957F
:100930002FB7F89480912A0290912B02A0912C025B
:10094000B0912D022FBF0895209121012223C9F0DB
:1009500020912E0227FF15C0E62FE695E695E69535
:10096000EE31D8F4E80FF92FF11D677021E030E087
:1009700001C0220F6A95EAF72095828128232283FD
:100980000895FC01329608962191621303C0DF019D
:1009900011971C92E817F907B9F7089520912101E2
:1009A0002223C1F020912E0227FF14C0E62FE695E6
:1009B000E695E695EE31F8F4E80FF92FF11D677032
:1009C00021E030E001C0220F6A95EAF78281822B94
:1009D00082830895FC0132962FEF30E04191641735
:1009E00051F02F3F19F4411101C0232F3F5F3630E2
:1009F000A9F72F3F09F40895820F911D27FD9A95BD
:100A0000FC0162830895A3E0B0E0E9E0F5E00C9416
:100A1000971E209127023091280228173907A1F04C
:100A20009093280280932702E0912502F0912602FC
:100A3000309751F024E029839B838A830680F781D5
:100A4000E02DCE01019609952396E2E00C94B31EA9
:100A5000A3E0B0E0EEE2F5E00C94971E20912302B3
:100A60003091240228173907A1F090932402809333
:100A70002302E0912502F0912602309751F023E005
:100A800029839B838A830680F781E02DCE0101961E
:100A900009952396E2E00C94B31E0E9498049C01F1
:100AA00090911F0280912002982B21F030931C021C
:100AB00020931B029091210280912202982B21F019
:100AC00030931A0220931902E0912502F091260238
:100AD000309749F082E080931D020480F581E02D7B
:100AE0008DE192E0099508958091180280FD16C06D
:100AF00081FD16C082FD16C0809117028823A1F0E7
:100B0000883280F428E0829FC001112468E270E0FE
:100B10000E94BE1E862F672B39F0089582E008954B
:100B200084E0089588E0089581E008958091180296
:100B300080FD14C081FD14C082FD16C08091160294
:100B4000882381F08E3180F420E5829FC00111243A
:100B50006EE170E00E94BE1E862F089584E1089524
:100B600088E2089588E0089580E5089580E008957A
:100B7000F894E82FE295EF70F0E031A1282F2F7064
:100B800081E090E001C0880F2A95EAF7982F9095B0
:100B9000932391A392A1892B82A378940895909195
:100BA0002E0292FF06C0282F28712830F9F4877F83
:100BB000846093FF06C0282F28712831F1F4877EC6
:100BC000846120912F0220FF06C0382F3871383001
:100BD000D9F4877F816021FF06C0282F2871283132
:100BE000D1F4877E816194FD877E0895282F24713A
:100BF0002430F9F68B7F8860DCCF282F24712431D4
:100C000001F78B7E8861DDCF382F3171313019F7D4
:100C10008E7F8860E0CF282F2171213121F78E7ED1
:100C20008861E1CF82389105B9F1B0F48133910543
:100C300009F47DC048F48932910509F46DC08A3207
:100C4000910509F47BC008958533910509F45FC0CF
:100C50008933910509F10895833E9105D9F138F45E
:100C6000803E910529F1823E910579F10895863EF5
:100C70009105D9F1873E910509F43EC0843E910566
:100C800041F520912F0221FF24C080912E0284FD86
:100C900019C087EE90E0089520912E02237009F08C
:100CA0005AC020912F0223FF14C089E290E00895DA
:100CB00020912E0220FD38C030912F0230FF09C054
:100CC00024FF43C090E080E0089520912E0222FD91
:100CD000F7CF089520912E0222FD3AC030912F02C5
:100CE00030FD39C024FFF5CFEDCF20912E0223FF38
:100CF000F0CF24FDE7CFCDCF20912E0223FD2EC0D3
:100D000030912F0231FFEECF84EE90E008952091D4
:100D10002E0225FFDECFC9CF20912E0225FD21C056
:100D200020912F0223FFD5CF89E390E0D2CF2091ED
:100D30002E0226FFCECF8AE290E0089520912E0267
:100D400026FFC7CF81E390E0089583EE90E00895F9
:100D500082EE90E0089580EE90E0089586EE90E0B7
:100D6000089585E390E00895972F7830B8F46630C1
:100D7000A8F48930B0F470E026E0929F600D711DF8
:100D80001124FB0190E3899FE00DF11D1124EE0F6A
:100D9000FF1FE455FF4F85919491089580E090E006
:100DA000089581E0FCCF1F93CF93DF930E9412063A
:100DB000EC01C11580E5D807F0F5C11580E4D8072E
:100DC00008F09CC0C03ED10520F5CD3CD10508F00F
:100DD00082C0C83AD10578F4C53AD10508F073C08D
:100DE000C130D10519F1209709F1C430D105F0F4D3
:100DF000D0E0C0E01BC0C33CD105D0F7C85AD0E05A
:100E0000CC0FDD1FCB5DDE4F0990D881C02DD4649F
:100E10000DC0C11580E2D80708F0D1C0C11581E02E
:100E2000D80708F05AC0C83ED10510F7CE01DF91AF
:100E3000CF911F910895C03682E5D80718F5C034C8
:100E400082E5D80708F06BC0C03282E5D80708F009
:100E50005FC0C11582E5D80708F497C02C2F2695EE
:100E6000269580E2289F900111248C2F8370C1E089
:100E7000D0E002C0CC0FDD1F8A95E2F7C22BD32B46
:100E8000DD68D4CFC03A82E5D80760F4C03882E587
:100E9000D80708F459C0CF71D0E0DC2FCC27C46F3D
:100EA000D06AC4CFC03C82E5D80708F462C0C03E17
:100EB00082E5D80708F09CCFDC2FCC27CC27DF7148
:100EC000C06FD06AB3CFC55AD0E0CE5DDE4FC881C7
:100ED000D0E0D064ABCFD065A9CF8D2F0E94CF05D5
:100EE000182FCE0199270E941206C12FD0E0DC2FC7
:100EF000CC27CC27DF71C82BD92B98CFCE019927CF
:100F00000E941206CC27DF70C82BD92BD06A8ECF57
:100F1000CF71D0E0DC2FCC27C16FD06A87CF2C2FC8
:100F200026952695277080E2289F900111248C2F0A
:100F30008370C1E0D0E002C0CC0FDD1F8A95E2F7DC
:100F4000C22BD32BDC6872CF2C2F269526952770C9
:100F500080E2289F900111248C2F8370C1E0D0E0A3
:100F600002C0CC0FDD1F8A95E2F7C22BD32BDA68C3
:100F70005DCF8C2F8F710E94CF05C82FD0E0DC2F62
:100F8000CC27CC27DF71D06251CF8C2F8F710E947C
:100F9000CF0555E0D695C7955A95E1F7CF70D0E0CB
:100FA000DC2FCC27282F30E084FF05C044E0220F3F
:100FB000331F4A95E1F7C22BD32BD06937CF8D2F42
:100FC0008F710E94CF05182FCE0199270E9412061B
:100FD000C12FD0E0DC2FCC27CC27DF71C82BD92B39
:100FE000D2CF80959091CE0198239093CE01089511
:100FF0008091980290915F02981301C008958F5FCD
:101000008770FACFB0E0A0E0E8E0F8E00C94901E22
:101010007C0100910202109103028091CF01909116
:10102000D001082B192BCFE0D0E0CC24C394D12CD5
:10103000BC2EC6010C2E02C0880F991F0A94E2F73D
:1010400080239123892B49F4219790F7B12C8B2D84
:10105000CDB7DEB7E9E00C94AC1EB7018C2F0E942F
:10106000B4060E94D306019779F3F1CFCF93DF93B3
:10107000EC010E940208BE010E94B4060E94D30641
:10108000DF91CF910895983078F5863068F5E82F94
:10109000F0E086E0989FE00DF11D11249E2F9770DF
:1010A00083E0F695E7958A95E1F7EE0FFF1FEE0FC7
:1010B000FF1FE457FE4F50E040E080E0219130E018
:1010C000092E02C0369527950A94E2F7217033273E
:1010D000042E01C0220F0A94EAF7822B4F5F5F4F64
:1010E0004430510559F7089580E00895983098F5F7
:1010F000863088F5E82FF0E086E0989FE00DF11D3E
:1011000011248E2F877041E001C0440F8A95EAF7C1
:1011100083E0F695E7958A95E1F7EE0FFF1FEE0F56
:10112000FF1FE457FE4F30E020E070E05191DF01F7
:101130001197CB01022E02C0969587950A94E2F78B
:10114000817081958527842385278C932F5F3F4F5E
:101150002430310559F708959093030280930202D9
:10116000089521E030E002C0220F331F8A95E2F794
:10117000209530958091020290910302822393235F
:101180000E94AC0808959091AB01809589238093CB
:10119000AB01282F277069F4891759F090912F021D
:1011A00092FF07C08695869586950E94B108109299
:1011B000AB01089521E030E002C0220F331F8A9571
:1011C000E2F78091020290910302822B932B0E94FE
:1011D000AC0808959093D0018093CF010895FC014D
:1011E00024812223C1F0808191810E94360892954A
:1011F0009F70963091F058F4925F9F70923058F43F
:10120000803F19F030F4883E30F481E008959A5F11
:10121000F4CF843FD1F380E00895883EB0F3813F5E
:10122000D1F7F3CF662309F45DC08D3C41F40E94F1
:1012300096058195809320020E944D0508958E3C6D
:1012400019F40E949605F6CF8F3C31F40E94960562
:10125000819580931F02F0CF803D19F40E9496057E
:10126000F8CF893D29F40E94740580932102E4CFD0
:101270008A3D21F40E9474058195F7CF8B3D31F4AE
:101280000E947405819580932202D6CF8C3D19F47B
:101290000E947405F8CF9FE2980F983070F4815D3A
:1012A000990B21E030E001C0220F8A95EAF7809186
:1012B0001E02822B80931E02BFCF8D3D31F48091A0
:1012C0001802816080931802B7CF8E3D21F480917F
:1012D00018028260F7CF8F3D09F0AECF80911802DF
:1012E0008460F0CF40911F028D3C59F48091200220
:1012F00087FF0DC01092200241110BC01092160200
:1013000008C08E3C81F48091200218169CF344237F
:1013100081F08091210290912202892B09F08CCFDB
:101320001092170289CF8F3C49F447FFF0CF1092FB
:101330001F02809120028111ECCFE0CF803D19F493
:101340001416ACF3E4CF90912102893D29F41916CB
:10135000F4F610922102DBCF8A3D19F497FFD7CF24
:10136000F8CF909122028B3D29F497FFD0CF1092B5
:101370002202CDCF8C3D19F41916CCF3C8CF9FE2D1
:10138000980F983090F4815D990B21E030E0B9011D
:1013900002C0660F771F8A95E2F7CB018095909186
:1013A0001E02892380931E02B2CF8D3D31F48091BD
:1013B00018028E7F80931802AACF8E3D21F480916F
:1013C00018028D7FF7CF8F3D09F0A1CF80911802D1
:1013D0008B7FF0CFA6E0B0E0E0EFF9E00C94961E32
:1013E00049835A8349815A819923A1F0222391F09C
:1013F000CA010E940208182F682F89819A810E94D1
:10140000760869817A81812F0E94B4062696E3E0EE
:101410000C94B21ECA010E944308182FF2CF0F93FA
:101420001F93CF93DF938B01EA0190915502943083
:1014300061F58093E9008FEF9091E800815095FD70
:1014400006C095ED9A95F1F700008111F5CF8091D6
:10145000E80085FF1AC00E942E03811111C08091FF
:10146000E80085FD06C08091E8008E778093E80053
:10147000F2CFF80181918F018093F100219779F7E4
:101480008091E8008E778093E800DF91CF911F91E3
:101490000F91089543E050E0BC0182E00E940F0AE2
:1014A000089546E050E0BC0182E00E940F0A0895D2
:1014B000CF93DF93EC0180912101811111C048E0AD
:1014C00050E0BE0181E00E940F0A80E2FE01A3E32A
:1014D000B2E001900D928A95E1F7DF91CF910895E6
:1014E00080912E0287FF05C040E282E050E0BE01FD
:1014F000EACF48E081E0FACFB0E0A0E0E2E8FAE02D
:101500000C948F1E7C015B016A018091F30101E064
:1015100010E08A3010F40AE010E0C1E0D0E0B5013C
:10152000C701F6010995811104C021960C171D070A
:101530002CF4CDB7DEB7EAE00C94AB1ECC9F900143
:10154000CD9F300D300D112490E080E045E34A95A9
:10155000F1F70000019682179307C1F7E0CF809161
:10156000DD01811110C08091D80080618093D80086
:101570008AE18A95F1F700C08091D90080FF0AC006
:1015800081E08093DD0181E09091DD01913009F0EF
:1015900080E0089582E08093DD010E940F031092A5
:1015A0005502F1CF0E94AF0A882359F0E09125023D
:1015B000F0912602309729F00190F081E02D0995F5
:1015C000089580E008950F931F930E94AF0A882327
:1015D00029F00E948C041F910F9108950E948C04A1
:1015E0000091F4011091F5012091F6013091F7017D
:1015F000600F711F821F931FEECF8091CE019091DB
:10160000CD01892B80936A019091CC019923A1F09F
:10161000892B80936A01809121018823E1F18091D7
:101620002E0287FF38C08EE1ECE6F1E090E08150B9
:10163000A0F591111092CC0140E250E06CEA71E00B
:101640008AE691E00E943E1F892B21F180E2EAE6C2
:10165000F1E0ACEAB1E001900D928A95E1F7E091FA
:101660002502F09126023097A9F08091210188236C
:1016700059F080912E0287FF07C080916A01809304
:101680006B0186E080936A010280F381E02D8AE697
:1016900091E00995089586E0C7CF2191222339F280
:1016A0009F5FC5CF882321F00E94F1070E94FD0AA9
:1016B0000895882339F09091CE01982B9093CE0114
:1016C0000E94FD0A0895882399F19CEF980F913AA2
:1016D00040F4682F8AE691E00E94A4040E94FD0A6B
:1016E000089590E2980F983050F4877091E001C00F
:1016F000990F8A95EAF7892F0E94F107EFCF9BE5B2
:10170000980F933028F490E080E00E942805089517
:1017100098E5980F9B3128F490E080E00E94030543
:10172000089593E3980F933118F460E00E94120932
:101730000895CF93C82F8823D9F18CEF8C0F813A6D
:10174000C8F580912101882311F180912E0287FF35
:101750001EC0EC2FE695E695E695F0E0E659FE4FC3
:10176000828190E04C2F477021E030E002C0220FD0
:10177000331F4A95E2F782239323892B91F06C2F34
:101780008AE691E00E94A4040E94FD0A0AC0ECE6E9
:10179000F1E082E791E02191C21789F38E179F074C
:1017A000D1F76C2F8AE691E00E94CE040E94FD0AD8
:1017B000CF91089580E28C0F883068F4C77021E0E3
:1017C00030E001C0220FCA95EAF78091CE01822B4A
:1017D0008093CE01EBCFEBE5EC0FE33040F4F0E08B
:1017E000EE5DFE4F808190E00E942805E1CFE8E5A4
:1017F000EC0FEB3150F4F0E0EE0FFF1FEB5DFE4F0E
:10180000808191810E940305D3CF83E38C0F8331C4
:1018100078F661E08C2F0E941209CACF0F931F93B4
:10182000CF93DF93C62FD42F022FFC01858188230D
:10183000A9F060939B020E94980490939A0280936F
:101840009902C77081E001C0880FCA95EAF70E942B
:10185000590BDF91CF911F910F91089580919B02B9
:10186000681335C08091990290919A020E947D047C
:10187000883C910560F510E21D0FCD17B9F080E2AC
:101880008C0F883040F4C77081E001C0880FCA9582
:10189000EAF70E94520B183048F481E09D2F9770B0
:1018A00001C0880F9A95EAF70E94590B802F0E9479
:1018B000990B802F0E94630B183058F6D77081E087
:1018C00001C0880FDA95EAF70E94520BC2CFC770A9
:1018D00081E001C0880FCA95EAF7F6CF90912F02F8
:1018E00092FB222720F9281779F080FB92F9909338
:1018F0002F0260912E0270912F0284E090E00E94EE
:10190000281F82E00E94C30808951092CE018091A2
:101910002101ECE6F1E0882329F180912E0287FF76
:1019200021C08EE1DF011D928A95E9F790E080E009
:101930000E94280590E080E00E9403051092CD01EE
:101940000E94FD0A86E0EDE1F2E0DF011D928A953A
:10195000E9F71092160210921702109218020E94D4
:101960004D05089586E0DECFAAE2B0E0EAEBFCE0A8
:101970000C94961E87E592E02091F100FC012193E2
:10198000CF01F2E08F359F07B9F78091580283307D
:1019900009F470C0B8F4813009F447C0823009F40A
:1019A000B1C08091E80083FF7EC280915702909180
:1019B00058029A3008F077C2E92FF0E0EA5AF04E68
:1019C0000C94D21E8A3009F48CC08B3009F46FC09D
:1019D000893039F780915702813219F780915B0283
:1019E00090915C020297E8F68091E800877F8093EF
:1019F000E8008091E80082FF38C09091F300809168
:101A0000F200029731F48091F100813011F08630BC
:101A100021F48091F100809332028091E8008B776D
:101A20008093E8000E945F03BCCF80915702813A07
:101A300009F0B7CF8091E800877F8093E80080911C
:101A40005B0290915C02892B61F460E283E392E097
:101A500070E00E940B048091E8008B778093E8008F
:101A6000A0CF60E090E080E0F3CF8091550281113B
:101A7000C0CF97CF80915702813A09F092CF8091E1
:101A80005B0290915C02892B09F08BCF8091E8007A
:101A9000877F8093E8008091E80080FFFCCF8091F1
:101AA00021018093F1008091E8008E77B9CF809179
:101AB0005702813209F075CF80915B0290915C02F0
:101AC000892B09F06ECF8091E800877F8093E80032
:101AD0000E945F0380915902809321010E94850C2E
:101AE00060CF80915702813209F05BCF8091E8008E
:101AF000877F8093E8000E945F0380915A02809361
:101B000031024FCF80915702813A09F04ACF80913C
:101B1000E800877F8093E8008091E80080FFFCCF99
:101B200080913102BECF803899F0823809F0BBC174
:101B300080915B028F70873008F0B5C18093E90017
:101B40008091EB0085FB882780F91092E90006C0A0
:101B50008091530290915402911182609091E8001B
:101B6000977F9093E8008093F1001092F1008091AC
:101B7000E8008E7794C1882309F482C1823009F08D
:101B800092C180915902811185C180915B028F7051
:101B90002FEF280F263008F086C18093E9002091AE
:101BA000EB0020FF77C1933031F48091EB0080622D
:101BB0008093EB006FC19091EB0090619093EB00EC
:101BC00021E030E001C0220F8A95EAF72093EA0075
:101BD0001092EA008091EB008860EACF811163C126
:101BE000109159021F778091E3008078812B8093B8
:101BF000E3008091E800877F8093E8000E945F0304
:101C00008091E80080FFFCCF8091E30080688093A2
:101C1000E30082E0111183E08093550244C18058B3
:101C2000823008F040C18091590290915A028C3D57
:101C300023E09207A1F583E08A838AE289834FB784
:101C4000F894DE01139620E03EE051E2E32FF0E04D
:101C500050935700E49120FF03C0E295EF703F5F7F
:101C6000EF708E2F90E0EA30C0F0C7968D939D9371
:101C70002F5F243159F74FBF8091E800877F809311
:101C8000E8006AE270E0CE0101960E940B048091A8
:101C9000E8008B778093E80006C1C096E7CF4091BB
:101CA0005B0250915C02292F33272330310509F460
:101CB00044C078F52130310509F46FC08BE390E022
:101CC000E2E0F5E02230310509F0EDC02091E800B6
:101CD000277F2093E80020915D0230915E028217F9
:101CE000930708F49C0140E02115310509F064C018
:101CF000411162C08091E80082FDC9CF80915502F8
:101D0000882329F2853019F28091E80083FFF2CF11
:101D1000BECF21323105A9F12232310509F0C3C00D
:101D20004115510509F443C04130510509F0BBC0CC
:101D300086EB90E0ECE0F4E0C9CF99278130910583
:101D4000C1F0009759F0029709F0ADC0EFE4F5E05B
:101D5000E4918E2F90E0EFE4F5E007C0EFE6F5E0C8
:101D6000E4918E2F90E0EFE6F5E0009709F49BC038
:101D7000ADCFEDE5F5E0E4918E2F90E0EDE5F5E0F7
:101D8000F4CF4115510571F04130510509F08BC078
:101D900089E090E0EDE2F5E099CF82E190E0EDE3BB
:101DA000F5E094CF89E090E0E4E1F5E08FCF80E4C6
:101DB00090E0E2ECF4E08ACF80915502882309F4A8
:101DC00066CF853009F463CF8091E80083FD5FCF53
:101DD0008091E80082FD8ECF8091E80080FF84CF63
:101DE0009091F3008091F2002115310519F08830AF
:101DF000910550F041E0089709F040E08091E8003B
:101E00008E778093E80070CF44914093F100319633
:101E1000215031090196E8CF803809F044C0809103
:101E2000E800877F8093E800809156028093F1005C
:101E30009ECE811138C0109159021230A0F58091C8
:101E4000E800877F8093E800109356020E945F03AA
:101E5000112311F084E005C08091E30087FDFACFE3
:101E600081E08093550242E061EC81E00E947E03B4
:101E700042E261EC82E00E947E038091550213C031
:101E800080915902813079F481E0933009F080E04B
:101E9000809354021092E9008091E800877F80933C
:101EA000E8000E945F038091E80083FF0AC08091F0
:101EB000E800877F8093E8008091EB008062809348
:101EC000EB00AA96E3E00C94B21E0E94850C2FEF63
:101ED00084E39CE0215080409040E1F700C0000086
:101EE00088E19AE00FB6F894A895809360000FBE41
:101EF00090936000FFCFA4E0B0E0E1E8FFE00C9435
:101F0000961E4091EF015091F0016091F1017091A6
:101F1000F2012FB7F89480912A0290912B02A091A0
:101F20002C02B0912D022FBF841B950BA60BB70B73
:101F300011E084369105A105B10570F10E94E30A14
:101F40006E5F7F4F8F4F9F4F69837A838B839C8314
:101F500080911101909112018A519E4F4091100180
:101F600050E04530510510F044E050E0BE016F5F95
:101F70007F4F0E944B1F82E090E00E94111E182F9D
:101F8000882351F00E948C046093EF017093F0015C
:101F90008093F1019093F201812F2496E3E00C9459
:101FA000B21EEF92FF921F93CF93DF9300D000D029
:101FB0000F92CDB7DEB77B0190E080E00E94111E4A
:101FC000182F882309F487C04091030150E0411580
:101FD000510511F041E050E060910401709105015C
:101FE0006A517E4FCE0105960E944B1F4091E2013F
:101FF0005091E3016091E4017091E5012FB7F894ED
:1020000080912A0290912B02A0912C02B0912D0276
:102010002FBF841B950BA60BB70B84369105A1052A
:10202000B10540F487EE91E00E94F8029D81891786
:1020300009F451C081E090E00E94111E81111AC084
:1020400010E08091DE019091DF01A091E001B0915C
:10205000E101F70180839183A283B383812F0F90E5
:102060000F900F900F900F90DF91CF911F91FF90E5
:10207000EF90089540910B0150E04530510510F06C
:1020800044E050E060910C0170910D016A517E4F67
:10209000CE0101960E944B1F87EE91E00E94F8024C
:1020A0009D818913CDCF0E948C046093E2017093CF
:1020B000E3018093E4019093E50189819A81AB81EA
:1020C000BC818093DE019093DF01A093E001B09387
:1020D000E10111E0B6CF8091E7019091E801A09174
:1020E000E901B091EA0189839A83AB83BC83111122
:1020F000E4CFA7CFACE0B0E0E0E8F0E10C948C1EB8
:102100008E010F5F1F4F88E0D8011D928A95E9F775
:102110008DE5C82E81E0D82EF12CE12CAA24A394C1
:10212000B12C27E6822E21E0922EF60181916F01DB
:102130008F3F09F442C0F894E82FE295EF70F0E089
:1021400021A18F70A50102C0440F551F8A95E2F7A7
:10215000CA01922F982B91A392A18095892382A3E3
:10216000789400C0E1E6F1E0712C31E021912F3F3D
:1021700009F46BC0A22FA295AF70B0E090968C913D
:1021800090E02F7002C0959587952A95E2F780FD23
:102190005CC0832F782A330F8E169F0639F7F6011D
:1021A000319780818F3F11F00E94B80550EA5A950F
:1021B000F1F7F801EE0DFF1D70828FEFE81AF80AB3
:1021C000A4E0EA16F10409F0B0CF48E050E0B8010D
:1021D00088EF91E00E943E1F009741F028E0F8014F
:1021E000A8EFB1E001900D922A95E1F7009101026C
:1021F000892B69F181E08093D5010E949804909326
:10220000D4018093D3018091D3019091D4010E9495
:102210007D04059700F110E00C5F1D4F44E050E095
:1022200068EF71E0C8010E943E1FB12C892B51F06C
:1022300084E0E8EFF1E0D80101900D928A95E1F792
:10224000BB24B3941092D50107C080E0A3CF809146
:10225000D5018111D8CFB12C0E94AF0AF82EE091A0
:102260000102882309F472C019861A861B861C860F
:102270000E2F10E00C5F1D4F8091F3018A3088F51E
:1022800041ED5FE0BE01675F7F4FC8010E947C0A9D
:10229000882309F44AC04BE75FE0BE01675F7F4FC8
:1022A000C8010E947C0A882309F43FC01092F30100
:1022B0008091000290E044E050E0BE01675F7F4FF4
:1022C0008C5F9D4F0E943E1F21E02093DC01892BF3
:1022D000F1F4F12C1F2D812F8B292C96EDE00C941D
:1022E000A81E8091D6019091D7010E947D04843F61
:1022F000914030F68091DC01882359F3FE01399634
:1023000084E0DF011D928A95E9F71092DC01E091EB
:102310000002F0E0EC5FFD4F89859A85AB85BC85B6
:1023200080839183A283B383D5CF8091F3018F3FC4
:1023300031F08F5F8093F3018A3008F4B9CF0E94A7
:1023400098049093D7018093D601D4CFF0E0EC5F4E
:10235000FD4F84E0A7EEB1E001900D928A95E1F780
:1023600087EE91E00E94F8028093E601C090EB01B5
:10237000D090EC01E090ED01F090EE018091D80159
:102380009091D901A091DA01B091DB01C816D9066C
:10239000EA06FB0611F410E09ECFC092D801D0925D
:1023A000D901E092DA01F092DB010E94AF0A182F06
:1023B0008111F1CF0E948C04C61AD70AE80AF90AE3
:1023C000C092F401D092F501E092F601F092F7018B
:1023D00082CFA8E0B0E0EFEEF1E10C94971E66EE3C
:1023E0007EEF90E080E00E94281F60E082E090E0B5
:1023F0000E940A1F60E083E090E00E940A1F109292
:10240000D0011092CF0160E074E184E090E00E947E
:10241000281F60E086E090E00E940A1F6FEF87E0CF
:1024200090E00E940A1F40E050E0BA0188E090E08E
:102430000E941C1F60E084E290E00E940A1F60E09E
:1024400087E190E00E940A1F60E08CE090E00E942B
:102450000A1F60E08DE090E00E940A1F19821A8234
:102460001B821C821D821E821F82188648E050E05B
:1024700068E170E0CE0101960E94FA1E40E050E053
:10248000BA0180E290E00E941C1F40E050E0BA01D7
:102490008FE090E00E941C1F40E050E0BA0183E111
:1024A00090E00E941C1F2896E2E00C94B31EB0E05E
:1024B000A0E0EDE5F2E10C948F1E8C01FC0184811B
:1024C000882341F121E040815181628173819581AE
:1024D0000E94EA09EC01FC01E851FC47E730F105F4
:1024E000A8F5E05AF04E0C94D21E26E241EE61EEC1
:1024F000C8010E940E0C8091AB01877059F0F80161
:102500008581882339F080912F0282FF03C082E009
:102510000E94C308CDB7DEB7EAE00C94AB1E27E2F9
:1025200045EE65EEE5CF26E241EE60EEE1CF27E233
:1025300045EE64EEDDCF26E241EE62EED9CF27E232
:1025400045EE66EED5CF28E241E0EBCFF80185817C
:10255000882309F473C310929B02CE01905783978E
:1025600008F056C384E090E00E94F41E90932F027E
:1025700080932E02FE01E150F047E232F10520F493
:10258000E959F04E0C94D21E80912E028160809306
:102590002E0295C080912F02886080932F028FC0F9
:1025A00080912E028260F3CF80912E028460EFCF63
:1025B00080912E028860EBCF80912F028160EDCF59
:1025C00080912F028260E9CF80912E028061DFCF5F
:1025D00080912E028062DBCF80912E028064D7CF63
:1025E0000E94850C80912E028068D1CF80912E02AE
:1025F0008C60CDCF80912F028360CFCF80912E024F
:102600008E7FC5CF80912F02877FC7CF80912E020A
:102610008D7FBDCF80912E028B7FB9CF80912E020E
:10262000877FB5CF80912F028E7FB7CF80912F0209
:102630008D7FB3CF80912E028F7EA9CF80912E0205
:102640008F7DA5CF80912E028F7BA1CF0E94850C1C
:1026500080912E028F779BCF80912E02837F97CF20
:1026600080912F028C7F99CF80912E0282FB992737
:1026700090F921E0922790FB82F990FB83F987CFB4
:1026800080912F02982F909591708E7F892B90FBCF
:1026900081F983CF90912E02892F8F7B96FF8064E2
:1026A00076CF0E94850C90912E02892F97FB87F997
:1026B00080586DCF61E08EE090E00E940A1F60912B
:1026C0002E0270912F0284E090E00E94281F0E9449
:1026D000850C11CF60E0EFCF90912E02892F8F7E75
:1026E00094FF806154CF90912E02892F8E7F90FFAE
:1026F00081604DCF90912F02892F877F93FF886053
:102700004CCF0E94850CFFEF24E33CE0F1502040C9
:102710003040E1F700C000000E946C046FEF7FEFD3
:1027200090E080E00E94281F0E94650F80912F0298
:1027300082FB882780F991E089270E946E0CF801BE
:102740008581C081D181882309F44AC0CE010E94CD
:102750000208F82E682FCE010E947608BE018F2D48
:102760000E94B4060E94D306D82FC92FA82EF801C4
:10277000C580B680B2943FE0B3228091AB018770F0
:10278000F1F0EC2CCC20E1F0892F807F803451F0E7
:1027900080E28D0F883098F0B11004C0892F807EC0
:1027A000803269F080912F0282FF09C082E00E948E
:1027B000C3088091AB018770EE24E3948111E12C72
:1027C000DC2ED2942FE0D222FBE0FD1508F46DC080
:1027D000ED2DF0E0E757F04E0C94D21E80E0ADCF27
:1027E000CE010E944308F82EB9CF2C2F2F70F22E65
:1027F000C07F19F0F29490EFF922CC20B9F0FF20BD
:1028000069F080E28D0F883010F0A11009C080912E
:10281000CE01F82AF092CE010E94FD0A8D2F43C00E
:102820008091CD01F82AF092CD01F6CF8D2F0E9434
:10283000630BFF20D1F1D05ED83010F0A11004C09E
:102840008F2D0E94F10706C0F0948091CD01F822EF
:10285000F092CD010E94FD0A28C03C2F3F70F32E5C
:10286000C07FC03219F0F29480EFF822AA2059F00C
:1028700081E0A81609F479C0CC2009F485C0BB20FA
:1028800009F447C0CBCF80912F0282FD3EC0CC20FF
:10289000B1F1FF2039F08091CE01F82AF092CE01FB
:1028A0000E94FD0A80E00E94990B2D2D2850330BC9
:1028B0002430310510F40E94D20AEE20A9F0809154
:1028C000AB0180FD11C0F80115828695869586952D
:1028D0000E94DA08C8010E9457128091AB018695C8
:1028E000869586950E94B10820E0F80140815181CB
:1028F00062817381848195810E94EA090BCE80E018
:102900000E94630BFF2089F29BCFCC20A1F0B11075
:1029100004C08F2D0E94590BC8CF91E0B912C5CFCA
:102920008091CC019F2D9823F91609F4BECFF82A87
:10293000F092CC01BACFB110B8CF8F2D0E94520BBC
:102940009091CC018F2D892329F08F2D809589239B
:102950008093CC0180918B019F2D982309F4A5CF02
:10296000F094F822F0928B01A0CFCC2029F0E5E082
:10297000EB1508F49ACFCDCFF4E0FB1508F495CF12
:102980008F2D0E94520B91CFBB20D1F329E3A212CD
:1029900009C03FEF87EE93E0315080409040E1F76F
:1029A00000C000008D2F0E94630B7FCF8C2F869577
:1029B0008695837069F0813009F077CF8D2F9C2F39
:1029C0009370C11002C080E090E00E9403056DCFBB
:1029D0008D2F9C2F9370C11002C080E090E00E9468
:1029E000280563CF6C2D8D2F0E9412095ECF8C2F8E
:1029F000837009F03FC0C11058CF4D2F42954695C6
:102A00004770440F440F2D2F2F7030E0042E02C06A
:102A1000220F331F0A94E2F790E080E0D4FF09C050
:102A20008FE090E002C0880F991F4A95E2F78095E9
:102A30009095C695C695C370C23099F078F44091D0
:102A4000CF015091D001C13039F0822B932B8423D8
:102A500095230E94EA0829CF242B352B822B932B18
:102A6000F8CF822B932B2091CF013091D001822778
:102A70009327EFCF8695CC2011F08C2F817088237F
:102A800009F413CF4D2F429546954770440F440FDC
:102A90002D2F2F7030E0042E02C0220F331F0A9416
:102AA000E2F790E080E0D4FF09C08FE090E002C040
:102AB000880F991F4A95E2F780959095C695C6951F
:102AC000C370C23099F078F4409102025091030231
:102AD000C13039F0822B932B842395230E94AC08BC
:102AE000E4CE242B352B822B932BF8CF822B932BE8
:102AF000209102023091030282279327EFCFCF70FB
:102B0000CC2029F08C2F0E94DA088D2F03CF8D2F37
:102B10000E94520B8C2F0E94B108C7CE8D2FE2EF7E
:102B2000AE1699F1EA1570F0F0EFAF16D1F021EF83
:102B3000A21691F0CC2009F45BC0B1106FCE8C2F9F
:102B40008F7127C033EFA31639F194EFA912F2CF9A
:102B500080912F0282FD2EC08C2F8F71CC20D9F254
:102B600018C0CC2069F0E4E0EB1508F49ECECF71DC
:102B700081E090E002C0880F991FCA95E2F7B8CFB4
:102B8000F5E0FB1508F491CEF2CF8C2F8F71C110B8
:102B9000C2CF0E94DA0889CE90E080E0CC2009F410
:102BA0009DCFCF7181E090E002C0880F991FCA9538
:102BB000E2F794CFCC2089F0CF718C2F0E94DA08F5
:102BC00080912F0282FF07C028E0C29FC00111241C
:102BD00083608093AB018C2FDCCF81E00E94C3081F
:102BE00031E03B1508F061CE82E00E94C3085DCE63
:102BF000BB2059F0893309F0D5CE8FEF97EEE3E093
:102C000081509040E040E1F7CBCE8C2F8F7183CF85
:102C1000C631FCE7DF0701F58091CE018A7A91E0A9
:102C200009F490E090938A0169E2811165E38AE6F4
:102C300091E00E94CE040E94FD0A5DCCC631DC47C3
:102C400009F07DCD80918A0169E2811165E38AE610
:102C500091E00E94A404EFCFC3303CE7D30709F40E
:102C60005DCD50F4C1159CE7D90709F44ACDC130B8
:102C7000DC4709F459CD63CDCB35FCE7DF0709F418
:102C8000ADCDCC352CE7D20709F450CDCA35DC47A1
:102C900009F055CD81E051CDCF93DF938091AA010A
:102CA000807F09F04DC08091A901882309F448C0B4
:102CB000E091980250915F02C091A501D091A401CA
:102CC0006091A6017091A70147E05E17C9F18E2FB0
:102CD00090E0E49FF0011124E05AFD4F248122236B
:102CE00091F1489FF001499FF00D1124DF01A05A96
:102CF000BD4F11962C9111972C1325C02C912D139B
:102D000022C015962C91159721111DC012962D9158
:102D10003C91261B370B283C3105A8F48091AA0171
:102D20008F7080618093AA01EA59FD4F80818F7076
:102D30008061808384EA91E00E9457120E94F80724
:102D4000DF91CF910895FC013196E770BECFA4E1E9
:102D5000B0E0EDEAF6E10C948D1E8C0186E0F801FE
:102D6000DE011F9601900D928A95E1F7F8018481AA
:102D7000E58094EAA92E91E0B92E9091A8019111D5
:102D800028C0882319F1EE20F1F0C8010E94EF0855
:102D9000F82E8823C1F087E0F801D50101900D924B
:102DA0008A95E1F78091A801813031F48091A401E6
:102DB0009091A5010E9436080E944C168F2D6496B2
:102DC000ECE00C94A91EC8010E945712FF24F39452
:102DD000F5CFD080C18082809380F090A9012091AE
:102DE000A6013091A701A401421B530BFF2009F457
:102DF000D9C0483C510508F092C08823F9F290915F
:102E0000A5018091AA01282F207F09F056C0C91280
:102E100014C09091A401D91210C0E11048C08F7065
:102E200080618093AA0184EA91E00E945712809108
:102E3000AA01F8018683F12CC1CFE11038C06C2DB6
:102E40008D2D0E94D9026C2D8D2D0E94D902E82E65
:102E50008111F1CFDF86C88A8F8598890E94360854
:102E6000292F22952F70243058F49F70223088F03B
:102E7000992399F0F8019681907F79F4FE2C9ECFEA
:102E80002A5F2F70223068F0C8010E945712EF2C81
:102E9000F5CF992311F0882389F3805E883070F391
:102EA000F3CF803F58F3815F833070F7E7CF809195
:102EB000AA0181608093AA01BECFC91207C0909178
:102EC000A401D91203C0EE2009F48DC0C8010E94EC
:102ED000EF08882309F477CFEE2009F474CF8091AE
:102EE000AA01803288F02091A4013091A501398790
:102EF00028879B868A869091A8019C871D868E874D
:102F0000CE0108960E94571287E0F801A4EAB1E0CA
:102F100001900D928A95E1F70E944C1657CF90913F
:102F2000AA01292F207F51F484EA91E00E945712D0
:102F300087E0F50111928A95E9F77DCF882309F49E
:102F40003DCF8091A5018C1110C08091A401D812B1
:102F50000CC0E1100AC09683C8010E94571287E096
:102F6000F50111928A95E9F729CFC8010E94EF086F
:102F7000882309F428CFEE2009F425CF8091AA01F7
:102F8000803210F22091A4013091A5013A83298367
:102F90009C828B829091A8019D831E828F83CE019B
:102FA0000196B0CF483C5105D0F6882309F40ECFE6
:102FB000FE2CEE2009F407CF8091A5018C1120C0D2
:102FC0008091A401D8121CC08091AA0180FD0FC07D
:102FD000982F907F61F08683903F31F0982F907FFB
:102FE000905F8F70892B8683C8010E94571287E0FB
:102FF000F801A4EAB1E001900D928A95E1F7DECEE6
:10300000C8010E94EF0881117FCF8091AA018160E1
:103010008093AA01C8010E945712D0CEABE1B0E064
:10302000E4E1F8E10C94951E4E8B5F8B688F798FED
:103030008A8F9B8F192F91111092CD011D8A86E0E6
:10304000FE017696DE011F9601900D928A95E1F7BA
:103050000A8D002341F021E04F85588969897A89DA
:10306000C8010E94EA090B8B1C8B87E0FE013F968A
:10307000DE01189601900D928A95E1F7CE0108962F
:103080000E94A71681110CC087E0FE013896DE0170
:10309000119601900D928A95E1F78C8581110BC0F4
:1030A00017E08091980290915F02891331C06B966E
:1030B000E4E00C94B11E20915F0230E0C90101965A
:1030C00087709927409198024817190699F097E060
:1030D000929FD001939FB00D1124A05ABD4FFE01C5
:1030E000319601900D929A95E1F780935F020E94CC
:1030F000F807D6CF0E94850C10925F0210929802BA
:1031000087E0E4EAF1E0DF011D928A95E9F7C8CF94
:10311000819FC0011124805A9D4F0E94A7168823C9
:1031200031F28091980290E0019687709927809300
:103130009802B7CFA6E0B0E0E0EAF8E10C94951E63
:103140000E9498048C018091D1019091D201801746
:10315000910781F019821A820E949804682F498190
:103160005A81792F80E090E00E940E181093D201CE
:103170000093D1012696E4E00C94B11E1F920F92A9
:103180000FB60F9211242F933F934F935F936F933A
:103190007F938F939F93AF93BF93CF93DF93EF93DF
:1031A000FF93D091E900DF708091EC00C82FC170CF
:1031B00080FDC0E81092E9008091F000877F809345
:1031C000F00078940E94B40C1092E9008091F00015
:1031D00088608093F000CD2BCF70C093E900FF9101
:1031E000EF91DF91CF91BF91AF919F918F917F919F
:1031F0006F915F914F913F912F910F900FBE0F9064
:103200001F9018951F920F920FB60F9211242F93B3
:103210003F934F935F936F937F938F939F93AF935E
:10322000BF93EF93FF938091E10082FF09C08091EB
:10323000E20082FF05C08091E1008B7F8093E10076
:103240008091DA0080FF24C08091D80080FF20C0E8
:103250008091DA008E7F8093DA008091D90080FF20
:103260009DC080E189BD82E189BD09B400FEFDCF2A
:1032700081E08093550280913002811109C00E9443
:103280000F030E94B0038091E20084608093E2000B
:103290008091E10080FF17C08091E20080FF13C0A1
:1032A0008091E2008E7F8093E2008091E200806155
:1032B0008093E2008091D80080628093D80019BC8E
:1032C00085E0809355028091E10084FF2BC08091BE
:1032D000E20084FF27C080E189BD82E189BD89B514
:1032E000982F917080FFFBCF8091D8008F7D8093C5
:1032F000D8008091E1008F7E8093E1008091E20010
:103300008F7E8093E2008091E20081608093E200F2
:1033100080915602882309F447C084E080935502C7
:10332000809155028091E10083FF27C08091E200E7
:1033300083FF23C08091E100877F8093E10082E0DA
:1033400080935502109256028091E1008E7F809307
:10335000E1008091E2008E7F8093E2008091E200A4
:1033600080618093E20042E060E080E00E947E03A2
:103370008091F00088608093F000FF91EF91BF9101
:10338000AF919F918F917F916F915F914F913F91FD
:103390002F910F900FBE0F901F90189519BC10928F
:1033A00055021092300274CF8091E30087FD93E0C4
:1033B00090935502B5CF78941F921FB61F92112497
:1033C0008F939F93AF93BF9380912A0290912B028A
:1033D000A0912C02B0912D020196A11DB11D8093E8
:1033E0002A0290932B02A0932C02B0932D02BF913E
:1033F000AF919F918F911F901FBE1F9018951F92A4
:103400001FB61F9211248F939F93AF93BF93809108
:103410002902811113C080912A0290912B02A09160
:103420002C02B0912D024196A11DB11D80932A025C
:1034300090932B02A0932C02B0932D02BF91AF91D9
:103440009F918F911F901FBE1F901895CDB7DEB72B
:103450002C970FB6F894DEBF0FBECDBF85B780683E
:1034600085BF85B7806885BF84B7877F84BF0FB667
:10347000F894A89580916000886180936000109214
:1034800060000FBE80E890E00FB6F8948093610072
:10349000909361000FBE86EB95E090936901809355
:1034A00068010E940F030E94B0038091E2008460D3
:1034B0008093E2007894809155028823A1F01091C6
:1034C000E9001F709091EC00892F817090FD80E8D9
:1034D000182B1092E9008091E80083FD0E94B40C43
:1034E0001F701093E90082E084BD93E095BD9AEFD0
:1034F00097BD80936E001092F4011092F501109226
:10350000F6011092F70190E080E00E94F41E863EE2
:103510009E4F11F00E94E9118EE090E00E94EC1E97
:1035200091E0811101C090E0909318010E94AF0AD0
:1035300081110E94251D809118018091180194E04D
:10354000811190E09093010284E0891B8093000236
:1035500084E90E94B80586E60E94B80587E90E94C2
:10356000B80586EC0E94B80501E611E057E6E52EA5
:1035700051E0F52ED8018D918D018F3F11F00E9401
:10358000B805E016F106B1F788E0E4E0F2E0DF010B
:10359000282F1D922A95E9F7E8EFF1E0DF011D924F
:1035A0008A95E9F790E080E00E94F41E863E9E4FE7
:1035B00011F00E94E91182E090E00E94EC1E8093DD
:1035C0000C0284E090E00E94F41E90932F028093FE
:1035D0002E020E947A10EFEFF6E721E0E150F04072
:1035E0002040E1F700C000000E947A108EE090E0D9
:1035F0000E94EC1EE4E08111E0E0F0E0EC5FFD4FA2
:10360000808181FF08C06FEF7FEF90E080E00E9433
:10361000281F0E946C0483E090E00E94EC1E90E062
:103620000E94EA080E94AF0A811102C00E94281D70
:1036300089E191E0909326028093250238E1A32E40
:10364000B12C4CE0842E42E0942E20E1422E809159
:10365000550212E1853009F482C00E947A108DE093
:10366000E82E82E0F82E94E0C92E92E0D92ED60101
:10367000F70191918D9122E0E531F20709F479C0CB
:103680009817B9F30E94AF0A382E10E02224239431
:10369000D6010D916D01F70151907F01501629F16E
:1036A0005026712C66246394862D8521B1F0332039
:1036B000A1F07F8218870E9498049A8789872B86B9
:1036C00091E0862D802309F490E09C874F815885F6
:1036D00069857A858B850E940E187394660CF6E0D6
:1036E0007F12E2CFF701319700831F5F183081F618
:1036F0000E94E30A42C080915502843011F1109279
:10370000290240E40FB6F894A895A09260000FBE7D
:103710004093600083B7817F846083BF83B78160FB
:1037200083BF7894889583B78E7F83BF0FB6F89454
:10373000A89580916000886180936000109260007D
:103740000FBE80915402882351F00E947A10E4E069
:10375000F2E081918111FFC08E169F06D1F7809112
:103760005502853009F4C7CF0E94850C0E94D20A09
:1037700074CF981387CF0E949A180E94AF0A86E0F0
:10378000EDE1F2E0DE01119601900D928A95E1F7EC
:1037900010921F0210922002109221021092220217
:1037A0008B819C81892B09F44AC080911B029091E6
:1037B0001C020E947D049C0190911602992309F439
:1037C000E5C025313105D8F19F3F19F09F5F9093F7
:1037D00016021B81112359F00E9496059FEF1116C6
:1037E0000CF491E0899F802D112480931F021C818D
:1037F000112359F00E9496059FEF11160CF491E0E9
:10380000899F802D11248093200230911F02332341
:10381000B1F020912002222391F045EB3403C00146
:103820001124992309F487C090931F0245EB2403C8
:1038300090011124332309F482C0309320028D813A
:103840009E81892B09F449C08091190290911A0236
:103850000E947D049C0190911702992309F491C064
:1038600021353105D0F19F3F19F09F5F90931702EA
:103870001D81112359F00E9474059FEF11160CF45D
:1038800091E0899F802D1124809321021E811123B4
:1038900059F00E9474059FEF11160CF491E0899F76
:1038A000802D112480932202309121023323A9F02C
:1038B00020912202222389F045EB3403C001112418
:1038C000992309F440C09093210245EB2403900111
:1038D00011243323E1F13093220246E050E0BE018F
:1038E0006F5F7F4F8DE192E00E943E1F892B61F454
:1038F00080911F0290912002892B90912102892BA7
:1039000090912202892B11F00E944D0586E0FE0164
:103910003196ADE1B2E001900D928A95E1F70E94F7
:10392000D20A90911502891709F491CE809315025D
:103930000E948C048ACE81E080931F0277CF81E0C1
:10394000809320027CCF81E080932102BECF81E072
:1039500080932202C2CF49BC19BD09B400FEFDCF3D
:103960008091D8008F7D8093D8008091E0008260A4
:103970008093E0008091E00081FDFCCF0E94850CE7
:10398000EECE2B30310508F070CFA7CF2B303105AC
:1039900008F01CCF54CF8EE14A9B02C08150E1F762
:1039A0004A9BFECF08955A9880E28A95F1F75A9A79
:1039B0000895FC013BE03A95F1F798E020E080E0C3
:1039C00031E040E14A95F1F7880F4A9B02C08160DF
:1039D000232742E04A95F1F7000040E14A95F1F7CC
:1039E000915079F790E19A95F1F799B132E03A95D3
:1039F000F1F7000040E14A95F1F792FB992790F921
:103A000092272081920F90830895A1E0B0E0EBE02F
:103A1000FDE10C94931E19828C017C01E60EF11CD1
:103A20000E151F0541F481E09981911180E02196E6
:103A3000E6E00C94AF1E0E94CB1CCE0101960E94C2
:103A4000D91CF80181938F01EBCF529A5A9A0895AD
:103A500052985A9AEA9AE9E6F0E080818F7C808356
:103A600008956150770B91E001C0990F6A95EAF7CC
:103A700020E031E0911108C0222391F05A9A80E2AF
:103A80008A95F1F75A980895492F482339F05A9AA0
:103A9000232740E24A95F1F79695ECCF5A98F9CF53
:103AA0005A98EDCFFF920F931F93CF93DF93EC01C2
:103AB0008C01060F111DC017D10729F4CDB7DEB751
:103AC000E5E00C94B01EF9900E94D31C68E08F2DA5
:103AD0000E94311DF0CF1F920F920FB60F9211244A
:103AE0000F931F932F933F934F935F936F937F9306
:103AF0008F939F93AF93BF93EF93FF93CF93DF93F6
:103B00000F92CDB7DEB719820E94CB1CCE01019671
:103B10000E94D91C082F069506950695282F2295F8
:103B20002570902F9570290F922F937026952695CA
:103B3000920F982797708981982B09F05CC0043008
:103B400008F059C080E18A95F1F75A9A529A82E0BA
:103B50008A95F1F700C05A9888E0089F80011124E7
:103B6000D801A050BF4F1696ED91FC911797309752
:103B7000A9F060915B0170915C0114962D913C91CC
:103B80001597260F371F11968D919C911297680FEC
:103B9000791F13964C9113978C910995F801E05079
:103BA000FF4F6381662351F020915B0130915C01EE
:103BB00084819581820F931F0E94521D0E94D31C05
:103BC00080E18A95F1F75A9852985A9A80E18A953D
:103BD000F1F7F801E050FF4F6081662351F020912A
:103BE0005B0130915C0181819281820F931F0E9461
:103BF000051D0E94CB1C0F90DF91CF91FF91EF919B
:103C0000BF91AF919F918F917F916F915F914F91F4
:103C10003F912F911F910F910F900FBE0F901F900A
:103C200018950F931F93CF93DF93EC0104970CF03B
:103C30004CC0F894529A5A9885E08A95F1F70000A2
:103C40009C2F969595708C2F8570980F892F837077
:103C50009695969523E0CC0FDD1F2A95E1F7980FF6
:103C60008E01092B0E94D31C00C068E0802F0E94A7
:103C7000311D80E18A95F1F752985A9A4A9B1EC0ED
:103C800087E090E04A991CC0FE01E050FF4F63813D
:103C90006623F9F020915B0130915C01848195816C
:103CA000820F931F0E94051D811113C0529A5A9AC8
:103CB0007894DF91CF911F910F91089500C0DECFCE
:103CC000019729F4529A5A9A789480E0F2CF00C072
:103CD000D9CF0E94CB1C80E28A95F1F75A98529A6C
:103CE00080E18A95F1F7C050DF4F6881662351F07B
:103CF00020915B0130915C0189819A81820F931F31
:103D00000E94521D0E94D31C789481E0D2CF2F9242
:103D10003F924F925F926F927F928F929F92AF925B
:103D2000BF92CF92DF92EF92FF920F931F93CF93A8
:103D3000DF93CDB7DEB7CA1BDB0B0FB6F894DEBF3F
:103D40000FBECDBF09942A88398848885F846E8465
:103D50007D848C849B84AA84B984C884DF80EE80AF
:103D6000FD800C811B81AA81B981CE0FD11D0FB6B8
:103D7000F894DEBF0FBECDBFED01089597FB072E6F
:103D800016F4009407D077FD09D00E94D81E07FCD6
:103D900005D03EF4909581959F4F0895709561955B
:103DA0007F4F0895EE0FFF1F0590F491E02D0994C9
:103DB000AA1BBB1B51E107C0AA1FBB1FA617B70751
:103DC00010F0A61BB70B881F991F5A95A9F780956D
:103DD0009095BC01CD010895F999FECF92BD81BDAA
:103DE000F89A992780B50895A8E1B0E042E050E044
:103DF0000C94301FDC01A40FB51F4150504048F017
:103E0000CB01840F951F2E910E940B1F41505040F3
:103E1000D0F70895262FF999FECF92BD81BDF89A6B
:103E2000019700B4021639F01FBA20BD0FB6F894FE
:103E3000FA9AF99A0FBE08950396272F0E940B1F36
:103E40000E940A1F252F0E940B1F242F0C940B1F6A
:103E50000196272F0E940B1F0C940A1FDC01CB0137
:103E6000FC01F999FECF06C0F2BDE1BDF89A31968A
:103E700000B40D9241505040B8F70895FB01DC01A9
:103E800004C08D910190801921F441505040C8F731
:103E9000881B990B0895FB01DC0102C001900D9273
:103EA00041505040D8F70895F894FFCF930DBB0DC3
:103EB000530FBB0D530FEE0D0F0E530F0C0F190FB9
:103EC0009312971275128F129B129F12A312FE1259
:103ED00073130613D012D4120A13D8120E131A1326
:103EE000E4126C13E8121E13EC1222134A13F012A0
:103EF00026135113F6122C133413DC121213E01292
:103F00001613FA12301340135A136A13CA1202130B
:103F10007A13F513F5132D142D14D614F214551429
:0A3F20005514F7147F158E158E1549
:103F2A000000000100000000000000040100000081
:103F3A000405000000000000016904580A510A4AF9
:103F4A000A01818283E200E900EA00B500B600B7FF
:103F5A0000CD008301CC008A019201940121022341
:103F6A000224022502260227022A02B300B4006FA5
:103F7A000070009F01CB019F02A002E601946697A0
:083F8A00C6F4F5F6F73133002F
:00000001FF
