:100000000C948C020C94A9020C94A9020C94721EFC
:100010000C94A9020C94A9020C94A9020C94A902B4
:100020000C94A9020C94A9020C949F1C0C94871D9B
:100030000C94541C0C94A9020C94A9020C94A902CF
:100040000C94A9020C94A9020C94A9020C94A90284
:100050000C94A9020C947B1C0C94A9020C94A90288
:100060000C94A9020C94A9020C94A9020C94A90264
:100070000C94A9020C94A9020C94A9020C94A90254
:100080000C94A9020C94A9020C94A9020C94A90244
:100090000C94A9020C94A9020C94A9020C94A90234
:1000A0000C94A9020C94A9020C94A902050109025E
:1000B000A10185020901A1000509190129081500FE
:1000C0002501950875018102050109300931158165
:1000D000257F95027508810609381581257F9501D0
:1000E00075088106050C0A38021581257F95017572
:1000F000088106C0C005010980A101850319012AF4
:10010000B700150126B700950175108100C0050CD8
:100110000901A101850419012AA002150126A002E6
:10012000950175108100C005010906A1018506052C
:100130000719E029E71500250195087501810205D9
:1001400007190029EF1500250195F07501810205B9
:10015000081901290595057501910295017503910D
:1001600001C005010906A101050719E029E71500ED
:100170002501950875018102950175088101050722
:10018000190029FF150026FF009506750881000556
:10019000081901290515002501950575019102959C
:1001A0000175039101C009023B00020100A0FA0998
:1001B0000400000103010100092111010001224492
:1001C0000007058103080001090401000103000084
:1001D0000009211101000122B60007058203200059
:1001E0000112010002000000085346010001000155
:1001F0000200010C0343006F0072006E00650000F6
:1002000000100366006F006F007300740061006EE1
:1002100000000004030904000014001A0009001380
:10022000000500A25204281524162117220A0000F6
:10023000001D001B3406000700190000000000002C
:100240000029432C412B42000034001C0018000FF1
:10025000000D00737C12280C2408211122100000CC
:10026000003800373436000B000E0000000000009C
:100270000033462A44284500000000000047520091
:100280000000000000E300E200E000E100000000E8
:10029000000000E60000003900000000000000003F
:1002A000000000000000007E007A007B007C007DE2
:1002B00000790000004F005200510050006500001E
:1002C000004D004B004E004A0049000000000000B5
:1002D000004C002A002800000000000000475200E7
:1002E0000000000000E300E200E000E10000000088
:1002F000000000E6000000390000000000000000DF
:100300000000000000000000007A007B007C007DFF
:100310000079000000D000CD00CE00CF00B6000074
:1003200000DC00D900DA00DB00B7000000000000AC
:1003300000D300D100D200000000000000475200AE
:100340000000000000E300E200E000E10000000027
:10035000000000E60000003900000000000000007E
:10036000000000000000000000BE00BD0000000012
:100370000000000000AB00A900AA00AC004600008D
:10038000001370B100B200B30000000000000000D4
:1003900000A800AE00AD00000036002400250026B5
:1003A0000027000000370021002200230054000035
:1003B0000027001E001F0020005700000000000062
:1003C0000055002E002D00000000000000475200E4
:1003D0000000000000E300E200E000E10000000097
:1003E000000000E6000000390000000000000000EE
:1003F00000000000000000000000002F022F00306D
:100400000030020000350032002602270200000002
:10041000000000000036023702000000000000006B
:100420000025022E002D00000000000000475200B1
:100430000000000000E300E200E000E10000000036
:10044000000000E60000003900000000000000008D
:100450000000000000000000004500400041004294
:10046000004600000044003D003E003F0047000001
:100470000043003A003B003C004800000000000040
:100480000065002C002B0000000000000047520017
:100490000000000000E300E200E000E100000000D6
:1004A000000000E60000003900000000000000002D
:1004B00000000000000000290014001A00080015C8
:1004C000001700E10004001600070009000A00E020
:1004D00000E2001D001B00060019000000000000E3
:1004E0000029002C002B001E00130012000C001825
:1004F000001C00340033000F000E000D000B00380C
:100500000037003600100011000500000000000058
:100510000040522A0028000011241FBECFEFDAE06D
:10052000DEBFCDBF11E0A0E0B1E0ECE5F1E402C038
:1005300005900D92A83AB107D9F722E0A8EAB1E0F8
:1005400001C01D92AE3DB207E1F70E9489190C94DB
:100550005A200C940000909396028093950208957F
:100560009093980280939702089521E030E002C0B2
:10057000220F331F8A95E2F780919702909198029B
:10058000822B932B0E94B002089521E030E002C03C
:10059000220F331F8A95E2F72095309580919702BC
:1005A00090919802822393230E94B002089598307C
:1005B00090F5863080F5E82FF0E086E0989FE00D1A
:1005C000F11D11248E2F877041E001C0440F8A95E0
:1005D000EAF783E0F695E7958A95E1F7EE0FFF1FBE
:1005E000EE0FFF1FE459FD4F20E030E070E0519125
:1005F000DF01CB01022E02C0969587950A94E2F79F
:10060000817081958527842385278E932F5F3F4FA7
:100610002430310561F70895983078F5863068F513
:10062000E82FF0E086E0989FE00DF11D11249E2F49
:10063000977083E0F695E7958A95E1F7EE0FFF1F37
:10064000EE0FFF1FE459FD4F40E050E080E02191A4
:1006500030E0092E02C0369527950A94E2F7217002
:100660003327042E01C0220F0A94EAF7822B4F5F32
:100670005F4F4430510559F7089580E00895809107
:100680009E0290919D02981301C008958F5F87701C
:10069000FACF909199028095892380939902282F0F
:1006A000277021110DC0891759F090919B0292FF7C
:1006B00007C08695869586950E94C502109299027C
:1006C00008958091920290919C02892B50919302FF
:1006D000511591F090912D01913021F490919A0251
:1006E00097FD0BC096E02CEA31E040E0915048F4D1
:1006F000411110929302852B08959EE124EB31E085
:10070000F4CFF90161919F01611581F34F5FEECF45
:10071000982F909580919202892380939202089558
:100720007830B8F46630A8F48830B0F4E62FF0E002
:1007300096E0799FE00DF11D112490E3899FE00D73
:10074000F11D1124EE0FFF1FE95EFD4F859194917D
:10075000089580E090E0089581E0FCCF9C01803E08
:10076000910509F448C0D8F48133910509F47DC09E
:1007700048F48932910509F46DC08A9709F47CC068
:10078000C90108958933910551F18238910539F1F4
:10079000C597B1F780919A0285FFF2CF29C0843EB8
:1007A000910509F447C048F4823E910599F1833ED2
:1007B0009105A9F121EE30E0E3CF863E910509F4E1
:1007C00044C0873E9105E1F680919A0283FD61C0A5
:1007D00090919B0291FF2BC024EE30E0D1CF80910D
:1007E0009A028370811152C080919B0283FFC8CF0F
:1007F00029E230E0C5CF80919A0280FD33C090910C
:100800009B0290FFBDCF23EE30E084FFB9CF20E004
:1008100030E0B6CF80919A0282FDF5CFB1CF8091C2
:100820009A0282FD30C090919B0290FD2FC084FF00
:10083000A7CFEDCF80919B0281FFA2CF80919A023A
:1008400027EE30E084FDE3CF9BCF80919A0283FDB9
:10085000F7CF96CF80919A0285FD1EC080919B02B2
:1008600083FF8ECF29E330E08BCF80919A0286FF01
:1008700087CF2AE230E084CF80919A0286FF80CF32
:1008800021E330E07DCF22EE30E07ACF20EE30E081
:1008900077CF26EE30E074CF25E330E071CF909132
:1008A0009A0292FF10C041E0282F2471243009F0F1
:1008B00040E031E0282F2871283009F030E043175C
:1008C00011F02CE0822793FF10C041E0282F247103
:1008D000243109F040E031E0282F2871283109F057
:1008E00030E0431711F02CE0822730919B0230FF5B
:1008F00010C051E0282F2171213009F050E041E073
:10090000282F2871283009F040E0541711F029E011
:10091000822731FF10C041E0282F2171213109F0D9
:1009200040E031E0282F2871283109F030E04317EA
:1009300011F029E0822794FD877E08951F93CF93BD
:10094000DF930E94AE03EC01811522E5920708F0C7
:1009500055C0811540E5940708F0D1C0803E91054F
:1009600020F58D3C910508F0A4C0883A910570F4FB
:10097000853A910508F09AC081309105D1F104972C
:10098000813A9105B0F1C0E0D0E033C0885A9109B6
:100990004B97C8F7C85AD0E0CC0FDD1FC55CDE4FBF
:1009A0000990D881C02DD46424C0811550E49507E6
:1009B000C0F4C11580E2D80708F0B7C0C83ED10521
:1009C000C0F0CE019A9581159F41E8F68D2F0E94C7
:1009D0004F04182FCE0199270E94AE03EC01D12BB2
:1009E00008C099270E94AE03CC27DF70C82BD92BF3
:1009F000D06ACE01DF91CF911F910895803842E5F2
:100A00009407C8F5803652E5950708F05BC0C034FE
:100A100082E5D807D0F4C03292E5D90708F04BC080
:100A20008C2F8695869520E2829FC0011124C37089
:100A300021E030E0A90102C0440F551FCA95E2F73A
:100A4000EA01C82BD92BDD68D4CF8C2F86958695EB
:100A5000877050E2859FC0011124C37021E030E00F
:100A6000A90102C0440F551FCA95E2F7EA01C82B3D
:100A7000D92BDC68BECF803C52E5950758F48F71C6
:100A8000C03AD245A0F590E0982F8827EC01C46FBA
:100A9000D06AAFCF805C9245809708F074CFDC2F8E
:100AA000CC27CC27DF71C06FD06AA3CFA497D064C6
:100AB000A0CFD0659ECFCF71D0E0DC2FCC27C16F07
:100AC000D06A97CF86958695877020E2829FC00175
:100AD0001124C37021E030E0A90102C0440F551F6A
:100AE000CA95E2F7EA01C82BD92BDA6882CF0E94B7
:100AF0004F04C82FD0E0DC2FCC27D0627ACF8F7183
:100B00000E944F0493E0CC0FDD1F9A95E1F7CC27AC
:100B1000DF70282F30E084FF04C050E1859F9001F2
:100B20001124C22BD32BD06964CF8D2F8F710E94DB
:100B30004F04182FCE0199270E94AE03EC01D12B50
:100B4000DCCFA0E0B0E0E7EAF5E00C94961F8C0162
:100B5000E0909702F0909802809195029091960211
:100B6000E82AF92ACFE0D0E0CC24C394D12CC601E6
:100B70000C2E02C0880F991F0A94E2F78E219F2144
:100B8000892B49F4219798F7B12C8B2DCDB7DEB77F
:100B9000E9E00C94B21FBC2EB8018C2F0E94900388
:100BA0000E949E04019771F3F0CF0F931F93CF9390
:100BB000FC01858100811181811591F0611581F021
:100BC000C8010E94A105C82F682FC8010E94D70242
:100BD000B8018C2F0E949003CF911F910F9108951F
:100BE000C8010E940C03C82FF3CFCF93DF93D82FF7
:100BF000C92F0E94A1056D2F7C2F0E9490030E9497
:100C00009E04DF91CF910895FC0184818115A1F0AC
:100C1000808191810E94F505282F92959F709630D2
:100C200099F060F4925F9F70923030F4203FB1F001
:100C300038F481E0283E38F080E008959A5FF3CFE1
:100C400081E0243FC9F7089591E0213F09F090E049
:100C500081E0283E08F080E0892B089581E0089526
:100C600080E00895F894E82FE295EF70F0E041A15C
:100C70008F7021E030E0B90102C0660F771F8A95BE
:100C8000E2F7CB01962F9095942391A392A1892B03
:100C900082A378940895282F35EB2303C0011124F3
:100CA00097FF04C080589109892F089580589F4F5D
:100CB000FBCF8091860280FD14C081FD14C082FDAF
:100CC00016C080918502811581F08E3180F420E577
:100CD000829FC00111246EE170E00E94C41F862F24
:100CE000089584E1089588E2089588E0089580E5F4
:100CF00008958091860280FD17C081FD17C082FD96
:100D000019C080918402811599F0883298F428E006
:100D1000829FC001112468E270E00E94C41F611527
:100D2000710551F0862F089562E0FCCF64E0FACFA0
:100D300061E0F8CF68E0F6CF81E0089580913A0253
:100D4000811559F0E0916202F0916302309729F029
:100D50000190F081E02D0995089580E00895A3E0C9
:100D6000B0E0E5EBF6E00C949D1F9C018091F4014E
:100D70009091F50182179307A1F03093F50120932C
:100D8000F401E0916202F0916302309751F083E048
:100D900089833B832A830084F185E02DCE0101966F
:100DA00009952396E2E00C94B91FA3E0B0E0EBEDC7
:100DB000F6E00C949D1F9C018091F2019091F3014B
:100DC00082179307A1F03093F3012093F201E09191
:100DD0006202F0916302309751F084E089833B8393
:100DE0002A830084F185E02DCE0101960995239692
:100DF000E2E00C94B91F90912D01913091F0ACEA92
:100E0000B1E0EFEF90E02D91821751F0EF3F19F430
:100E1000211101C0E92F9F5F9630A9F7EF3FC9F478
:100E2000089590919A0297FFEACFE82FE695E6950C
:100E3000E695803FA8F7F0E0EE54FE4F877021E082
:100E400030E001C0220F8A95EAF78281822B8283EB
:100E500008950E2E000CFF0BE655FE4FF8CF909133
:100E60002D01913021F490919A0297FD0CC0ECEA8B
:100E7000F1E09191891302C0DF011E9251E0E23B43
:100E8000F507B9F70895E82FE695E695E695803FD2
:100E9000C8F7F0E0EE54FE4F877021E030E0A90182
:100EA00002C0440F551F8A95E2F7CA0180959281CE
:100EB00089238283089580912C0108952FB7F89497
:100EC0008091210290912202A0912302B0912402EC
:100ED0002FBF08950E945E072091890230918A02F7
:100EE000232B211521F08093160290931702209155
:100EF0008B0230918C02232B211521F08093140258
:100F000090931502E0916202F0916302309749F0EC
:100F100082E0809387020680F781E02D87E892E0E7
:100F200009950895611509F44BC0E3E3E80FE33137
:100F300050F4F0E0E45AFF4D0C94D81F0E9459067B
:100F4000819580938A020E946A0708950E9459063B
:100F5000F8CF0E945906819580938902F4CF0E94B0
:100F60005906FACF0E94790680938B02ECCF0E943B
:100F700079068195F9CF0E947906819580938C023C
:100F8000E2CF0E947906FACF815D990B21E030E033
:100F900001C0220F8A95EAF780918802822B809304
:100FA0008802D1CF80918602816080938602CBCF68
:100FB000809186028260F9CF809186028460F5CFAD
:100FC000409189028D3C59F480918A0287FF0DC0BF
:100FD00010928A02411559F41092850208C08E3C85
:100FE00081F480918A0218169CF3411581F080915A
:100FF0008B0290918C02892B8111A5CF10928402D3
:10100000A2CF8F3C41F447FFF0CF1092890280912C
:101010008A028115E0CF803D19F41416B4F3E5CFB0
:1010200090918B02893D29F41916FCF610928B02DF
:10103000DCCF8A3D19F497FFD8CFF8CF90918C027E
:101040008B3D29F497FFD1CF10928C02CECF8C3DEF
:1010500019F41916CCF3C9CF9FE2980F983090F489
:10106000815D990B21E030E0B90102C0660F771F66
:101070008A95E2F7CB01809590918802892380932D
:101080008802B3CF8D3D31F4809186028E7F8093AC
:101090008602ABCF8E3D21F4809186028D7FF7CF03
:1010A0008F3D09F0A2CF809186028B7FF0CF2FB7C2
:1010B000F894609121027091220280912302909114
:1010C00024022FBF0895CF92DF92EF92FF9280917A
:1010D0003A02811559F00E9457086B017C01C70143
:1010E000B601FF90EF90DF90CF9008950E945708CF
:1010F000C0903C02D0903D02E0903E02F0903F0252
:10110000C60ED71EE81EF91EEACF9C014FB7F89411
:101110008091210290912202A0912302B091240299
:101120004FBF821B930B089587E797E790930108C1
:101130008093000888E19AE00FB6F894A895809310
:1011400060000FBE90936000FFCFFC019B01809177
:10115000E8019091E9018617970740F0672B29F481
:101160008091E8008E778093E800C90140E0009705
:1011700041F4411106C08091E80082FF2FC080E059
:101180000895209102022115A9F12530A9F120919D
:10119000E80023FD2DC02091E80022FDECCF209136
:1011A000E80020FFE4CF3091F3002091F200009797
:1011B00019F02830310558F041E02830310509F0A8
:1011C00040E02091E8002E772093E800D0CF4191B5
:1011D0004093F10001972F5F3F4FE9CF80910202CA
:1011E000811541F0853041F08091E80083FFC3CF45
:1011F00081E0089582E0089583E008958091E201FE
:1012000087FF13C08091E80082FF06C08091E8004C
:101210008B778093E8000895809102028111F2CFCC
:101220000895809102028115D9F38091E80080FF32
:10123000F8CF8091E8008E77ECCF2091E4003091D8
:10124000E50095E6A9012091EC00822F817020FF36
:1012500006C08091E80080FF06C080E008952091DC
:10126000E80022FD1AC080910202811589F08530C4
:1012700089F08091EB0085FD0FC02091E400309152
:10128000E50042175307F9F29A95E1F684E00895D4
:1012900082E0089583E0089581E00895E8EDF0E0AC
:1012A00080818E7F80831092E2001092DA0010928B
:1012B000E100A0EEB0E08C9181608C9380818F770B
:1012C000808319BCA7EDB0E08C918E7F8C938081D8
:1012D0008F7E80831092E1010895FC01AC014C5F88
:1012E0005F4F8FEF61E39191892728E030E0982FDD
:1012F000990F87FF09C0892F862721503040B9F701
:10130000E417F50781F70895892FF7CF982F909369
:10131000E900891771F07091EC002091ED00509177
:10132000F00021FD09C09F5F973089F78093E900A5
:101330000895762F242F50E03091EB003E7F3093BC
:10134000EB003091ED003D7F3093ED003091EB00EC
:1013500031603093EB007093EC002093ED005093DC
:10136000F0002091EE0027FDDECF0895A0E0B0E070
:10137000ECEBF9E00C94971FC8EDD0E088818F7EEC
:101380008883E7EDF0E080818160808384E082BF24
:1013900081E08093E10188818E7F888302EE10E0F6
:1013A000F80110821092DA0081EEC82ED12CF601DD
:1013B000108288818F77888388818068888388817C
:1013C0008F7D888319BC109202021092E001109266
:1013D00001021092DF0190EEE92EF12CF7018081DD
:1013E0008B7F808388818160888342E060E080E039
:1013F0000E948609F60180818E7F8083F8018081BA
:1014000081608083808188608083F70180818E7F06
:101410008083888180618883CDB7DEB7E8E00C9453
:10142000B31FE0919E0290919D0227E0E91302C054
:1014300080E00895AE2FB0E02E9FF0011124E15618
:10144000FD4F3181361306C03081381303C035811A
:10145000341304C0FD013196E770E8CF81E00895B0
:101460000F931F93CF93DF938B01EA0190910202B8
:10147000943059F58093E9008FEF9091E80095FD45
:1014800006C095ED9A95F1F700008A95B1F7809125
:10149000E80085FF1AC00E941D09811111C08091CA
:1014A000E80085FD06C08091E8008E778093E80013
:1014B000F2CFF80181918F018093F100219779F7A4
:1014C0008091E8008E778093E800DF91CF911F91A3
:1014D0000F910895CF93DF93D82FC92F48E050E0A4
:1014E000682F792F81E00E94300A88E0ED2FFC2FD1
:1014F000AAEEB1E001900D928A95E1F7DF91CF91CC
:101500000895BC0140E250E082E00E94300A089554
:10151000BC0146E050E082E00E94300A0895BC0120
:1015200043E050E082E00E94300A0895A0E0B0E07D
:10153000ECE9FAE00C94951F182F092FB62EA72E70
:101540007A018091DC019AE0C92ED12C8A3018F002
:10155000CC24C394D12CC1E0D0E06B2D7A2D812F07
:10156000902FF7010995811116C02196CC16DD0642
:1015700094F0CC9FC001CD9F900D900D112420E0E0
:1015800030E045E34A95F1F700002F5F3F4F281701
:101590003907B9F7E2CFCDB7DEB7EAE00C94B11F57
:1015A00090919B0292FB222720F9281779F080FB6B
:1015B00092F990939B0260919A0270919B0284E051
:1015C00090E00E942E2082E00E94490308958091BD
:1015D0002D01813059F580919A0287FF27C00E9422
:1015E00061038093B30140E250E062E472E082EB79
:1015F00091E00E944420892BC1F080E2E2EBF1E00F
:10160000A2E4B2E001900D928A95E1F7E0916202C6
:10161000F0916302309749F086E08093B201048034
:10162000F581E02D82EB91E0099508950E94610318
:101630008093AA0148E050E064E672E08AEA91E013
:101640000E944420892B89F388E0EAEAF1E0A4E6CD
:10165000B2E001900D928A95E1F7E0916202F0917B
:101660006302309711F30280F381E02D8AEA91E062
:10167000DBCFCF93C82F8115D1F08CEF8C0F813A3F
:10168000A0F580912D01813021F480919A0287FD8F
:1016900010C0ECEAF1E08191C81709F121E0E23BCA
:1016A000F207C9F78C2F0E94FB060E94E70ACF9130
:1016B0000895EC2FE695E695E695F0E0EE54FE4FA2
:1016C000828190E04C2F477021E030E002C0220F71
:1016D000331F4A95E2F782239323892B19F38C2F2A
:1016E0000E942F070E94E70ADDCF80E28C0F88302E
:1016F00068F4C77081E090E001C0880FCA95EAF7EE
:10170000C0919202C82BC0939202CFCF8BE58C0F71
:10171000833038F42C2F2452330BC9010E94AF06BA
:10172000C6CFE8E5EC0FEB3150F4F0E0EE0FFF1F11
:10173000EF58FE4F808191810E94D506B8CF83E398
:101740008C0F833108F0B3CF61E08C2F0E94920799
:10175000AECF811581F19CEF980F913A28F40E9449
:101760002F070E94E70A089590E2980F983050F4EE
:10177000877091E001C0990F8A95EAF7892F0E943E
:101780008803EFCF9BE5980F933028F480E090E03A
:101790000E94AF06089598E5980F9B3128F480E0E9
:1017A00090E00E94D506089593E3980F933118F4C2
:1017B00060E00E9492070895811539F0909192029D
:1017C000892B809392020E94E70A0895811521F0E7
:1017D0000E9488030E94E70A089510929202809165
:1017E0002D01813039F580919A0287FF23C0E4EB07
:1017F000F1E08EE1DF011D928A95E9F780E090E04B
:101800000E94AF0680E090E00E94D50610929C02F4
:101810000E94E70A86E0E7E8F2E0DF011D928A9580
:10182000E9F71092850210928402109286020E94BB
:101830006A070895ECEAF1E086E0DCCF0E94ED0B48
:101840002FEF84E39CE0215080409040E1F700C0FE
:10185000000088E19AE00FB6F894A89580936000A4
:101860000FBE90936000FFCFAAE2B0E0EAE3FCE095
:101870000C949C1F82EE91E0FC0101962091F100F6
:10188000208321E08A3E9207B9F78091E3018930F5
:1018900009F45AC0C8F4823009F4B6C0833009F4A0
:1018A00085C0813091F18091E80083FFEAC080918A
:1018B000E2019091E3019A3008F0E3C0E92FF0E0F3
:1018C000E159FF4D0C94D81F8A3009F48CC08B303D
:1018D00051F78091E201813231F78091E6019091D8
:1018E000E701892B01F78091E800877F8093E8006A
:1018F0000E94FE0881E09091E401911101C080E016
:1019000080932D010E94ED0BCECF8091E201813AB0
:1019100051F68091E800877F8093E8008091E6018E
:101920009091E701892B61F060E080E090E070E049
:101930000E94A5088091E8008B778093E800B3CFE0
:1019400068E08AEE91E0F3CF8091E201813209F004
:10195000AACF8091E6019091E701029708F0A3CF0A
:101960008091E800877F8093E8008091E80082FF03
:1019700018C09091F3008091F200029731F48091A9
:10198000F100813011F0863021F48091F1008093D4
:101990002C018091E8008B778093E8000E94FE087C
:1019A00082CF809102028111E0CF7DCF8091E20150
:1019B000813A09F078CF8091E6019091E701892B77
:1019C00009F071CF8091E800877F8093E8008091D3
:1019D000E80080FFFCCF80912D018093F100809181
:1019E000E8008E77D9CF8091E201813209F05BCF98
:1019F0008091E800877F8093E8000E94FE08809134
:101A0000E50180932B014FCF8091E201813A09F0EB
:101A10004ACF8091E800877F8093E8008091E800BA
:101A200080FFFCCF80912B01D8CF803889F082389D
:101A300041F58091E6018F70873018F58093E900B9
:101A40008091EB0085FB882780F91092E90006C0A1
:101A500080910102880F9091DF01892B9091E8001D
:101A6000977F9093E8008093F1001092F1008091AD
:101A7000E8008E7723C0811116C08091E401813087
:101A800011F18091E80083FF0AC08091E800877F10
:101A90008093E8008091EB0080628093EB00AA962F
:101AA000E3E00C94B81F823061F78091E401811566
:101AB00089F01092E9008091E800877F8093E80028
:101AC0000E94FE08DECF81E0933009F080E0809331
:101AD0000102EFCF8091E6018F702FEF280F2630A3
:101AE00080F68093E9002091EB0020FFE2CF933055
:101AF00031F48091EB0080628093EB00DACF90911B
:101B0000EB0090619093EB0021E030E0A90102C06E
:101B1000440F551F8A95E2F74093EA001092EA00BD
:101B20008091EB008860E8CF8111ABCF1091E40188
:101B30001F778091E3008078812B8093E300809170
:101B4000E800877F8093E8000E94FE088091E8000B
:101B500080FFFCCF8091E30080688093E30083E006
:101B6000111101C082E0809302028BCF8058823035
:101B700008F087CF2091E4013091E5012C3D53E03E
:101B8000350799F583E08A838AE289834FB7F89411
:101B9000DE01139620E03EE051E2E32FF0E05093A7
:101BA0005700849120FF03C082958F703F5F8F7034
:101BB0008A30C8F0895C90E08D939D932F5F24312B
:101BC00061F74FBF8091E800877F8093E8006AE269
:101BD00070E0CE0101960E94A5088091E8008B7705
:101BE0008093E8004ECF805DE6CF832F9927833026
:101BF000910529F160F48130910509F476C00297CE
:101C000009F03FCF8BE390E0E6EAF1E02DC02091B0
:101C1000E6013091E7018132910509F45AC08297BB
:101C200009F02FCF2115310509F469C021303105A4
:101C300009F027CF86EB90E0ECEAF0E015C0C9018F
:101C400099272130B1F18230910509F43AC0892BEE
:101C500009F017CFE3E1F2E0E4918E2F90E0E3E1A9
:101C6000F2E0009709F40DCF2091E800277F209340
:101C7000E8002091E8013091E9018217930708F408
:101C80009C0140E02115310509F03EC041113CC0E6
:101C90008091E80082FDA1CF80910202811509F4B4
:101CA0009CCF853009F499CF8091E80083FFF0CF75
:101CB00094CFE1E0F2E0E4918E2F90E0E1E0F2E0F9
:101CC000D0CFE3EFF1E0E4918E2F90E0E3EFF1E08D
:101CD000C8CF2115310571F02130310509F0D1CE81
:101CE00089E090E0E1EDF1E0BFCF82E190E0E1EE4C
:101CF000F1E0BACF89E090E0E8EBF1E0B5CF84E421
:101D000090E0E2E6F1E0B0CF80910202811509F4A3
:101D100064CF853009F461CF8091E80083FD5DCF09
:101D20008091E80082FDB4CF8091E80080FFAACFC7
:101D30009091F3008091F2002115310519F088305F
:101D4000910550F041E0089709F040E08091E800EB
:101D50008E778093E80096CF44914093F1003196BE
:101D6000215031090196E8CF803809F08ACE809160
:101D7000E800877F8093E8008091E0018093F10084
:101D800076CE81117ECE1091E401123008F079CE2A
:101D90008091E800877F8093E8001093E0010E9423
:101DA000FE081115A9F084E08093020242E061EC84
:101DB00081E00E94860942E261EC82E00E9486098D
:101DC00080910202843051F482E080932E0159CE3A
:101DD0008091E30087FDE7CF81E0E6CF81E0F5CF9A
:101DE00080918D02811549F080919C028D7D8093B8
:101DF0009C020E94E70A10928D020895A8E0B0E0CC
:101E0000E4E0FFE00C949D1F65EE7EEF80E090E043
:101E10000E942E2060E082E090E00E94102081E08D
:101E200090E0909396028093950261E083E090E0C9
:101E30000E94102060E074E184E090E00E942E2077
:101E400060E086E090E00E94102060E087E090E093
:101E50000E94102040E050E0BA0188E090E00E942B
:101E6000222060E083E290E00E94102060E08CE09D
:101E700090E00E94102060E08DE090E00E94102031
:101E800019821A821B821C821D821E821F82188662
:101E900048E050E067E170E0CE0101960E9400202A
:101EA00040E050E0BA018FE190E00E94222040E043
:101EB00050E0BA018FE090E00E94222040E050E024
:101EC000BA0183E190E00E9422202896E2E00C947F
:101ED000B91FACE0B0E0EFE6FFE00C94901FFE010C
:101EE000319688E0DF011D928A95E9F78FE2E82EAE
:101EF00081E0F82E8F013F01AA24A394B12C29E39D
:101F0000822E21E0922EF70181917F018F3F09F40B
:101F10003EC0F894E82FE295EF70F0E021A18F70B9
:101F2000A50102C0440F551F8A95E2F7CA01922FFE
:101F3000982B91A392A18095892382A3789400C0C5
:101F4000E3E3F1E031E0512C21912F3F79F0A22F12
:101F5000A295AF70A05EB0E08C9190E02F7002C0AF
:101F6000959587952A95E2F780FF80C080E0582AF2
:101F7000330F8E169F0641F7F70182918F3F11F0C4
:101F80000E94320650EA5A95F1F7D8015C920F5F31
:101F90001F4FB3E3EB16B1E0FB0609F0B4CF48E006
:101FA00050E0B30186EF91E00E9444206C01892B40
:101FB00041F088E0F301A6EFB1E001900D928A951F
:101FC000E1F70091FF0110E00D5F1D4FC114D10436
:101FD00009F44EC081E08093DB010E945E0790937C
:101FE000DA018093D90180913A02811509F497C0F2
:101FF0007E01E9E0EE0EF11C84E0D7011D928A9586
:10200000E9F78091DC018A3008F054C04AE351E1DD
:10201000B701C8010E94960A811509F46EC041EE0D
:1020200051E1B701C8010E94960A811509F465C003
:1020300043EE50E1B701C8010E94960A811509F4E8
:102040005CC01092DC018091FE0190E044E050E021
:10205000B7018D5F9D4F0E94442021E02093D8015D
:10206000892BE9F52C96EFE00C94AC1F832F7FCFE2
:102070008091DB01811509F4B6CF8091D90190914F
:10208000DA010E948508059708F4ADCF44E050E0DE
:1020900066EF71E0C8010E944420892B41F084E082
:1020A000E6EFF1E0D80101900D928A95E1F71092E8
:1020B000DB0199CF8091D6019091D7010E948508CC
:1020C000843F914008F0A2CF8091D801811551F250
:1020D00084E0F70111928A95E9F71092D801E09116
:1020E000FE01F0E0ED5FFD4F89859A85AB85BC85EB
:1020F00080839183A283B383B5CF8091DC018F3F2E
:1021000039F40E945E079093D7018093D601DCCF0B
:102110008F5F8093DC018A3008F495CFF2CFE09096
:10212000FE01F12CA7014D5F5D4F7A01F80180811E
:102130009181A281B3818093260290932702A0937C
:102140002802B093290286E292E00E946D098093F2
:10215000250280912A0290912B02A0912C02B0912D
:102160002D02F70180839183A283B383C0902E0256
:10217000D0902F02E0903002F09031028091D20195
:102180009091D301A091D401B091D501C816D90680
:10219000EA06FB0609F466CFC092D201D092D301C1
:1021A000E092D401F092D5010E945708C61AD70ACE
:1021B000E80AF90AC0923C02D0923D02E0923E0247
:1021C000F0923F024FCFA4E0B0E0E9EEF0E10C94D2
:1021D0009C1F4091190250911A0260911B0270914C
:1021E0001C022FB7F8948091210290912202A091B5
:1021F0002302B09124022FBF841B950BA60BB70BB3
:1022000011E084369105A105B10578F10E946308BB
:10221000DC01CB010296A11DB11D89839A83AB839A
:10222000BC8380912401909125018B5D9D4F20916D
:102230002301422F50E0253010F044E050E0BE0171
:102240006F5F7F4F0E94512083E090E00E94191F32
:10225000182F811551F00E9457086093190270934E
:102260001A0280931B0290931C02812F2496E3E0B4
:102270000C94B81FEF92FF921F93CF93DF9300D07F
:1022800000D00F92CDB7DEB77B0180E090E00E94D6
:10229000191F182F811509F46DC080910E01482F68
:1022A00050E0811511F041E050E060910F01709114
:1022B00010016B5D7D4FCE0105960E94512040912B
:1022C00036025091370260913802709139022FB76F
:1022D000F8948091210290912202A0912302B09162
:1022E00024022FBF841B950BA60BB70B84369105D8
:1022F000A105B10538F486E292E00E946D099D8146
:102300008917C1F181E090E00E94191F811509F43D
:102310003FC080911601482F50E0853010F044E016
:1023200050E060911701709118016B5D7D4FCE01F7
:1023300001960E94512086E292E00E946D099D81E3
:10234000891326C00E9457086093360270933702A3
:10235000809338029093390289819A81AB81BC8144
:102360008093320290933302A0933402B0933502EB
:1023700081E00FC08091260290912702A09128024F
:10238000B091290289839A83AB83BC831111E4CF76
:1023900080E040913202509133026091340270919A
:1023A0003502F70140835183628373830F900F904E
:1023B0000F900F900F90DF91CF911F91FF90EF90B2
:1023C00008950F931F93CF93DF93D82FC92F44E025
:1023D00050E06AE272E00E9444208C0140911D02AC
:1023E00050911E0260911F02709120022FB7F89445
:1023F0008091210290912202A0912302B0912402A7
:102400002FBF841B950BA60BB70B84369105A10536
:10241000B10510F4012B11F180911C0190911D0167
:102420008B5D9D4F20911B01422F50E0253010F015
:1024300044E050E06D2F7C2F0E94512082E090E01C
:102440000E94191F811559F00E94570860931D02C0
:1024500070931E0280931F029093200281E0DF910F
:10246000CF911F910F910895FF920F931F93CF93D8
:10247000DF93C62FD42F122F8115A9F060939002FD
:102480000E945E079093DE018093DD01C77081E0BA
:1024900001C0880FCA95EAF70E94DC0BCDB7DEB702
:1024A000E5E00C94B61F80919002681333C08091D0
:1024B000DD019091DE010E948508883C910550F570
:1024C00000E20D0FCD17A9F0C770FF24F3948F2DF4
:1024D00001C0880FCA95EAF70E94E60B083048F45D
:1024E0008D2F877001C0FF0C8A95EAF78F2D0E940F
:1024F000DC0B812F0E94390B812F0E94A90B083021
:1025000068F6D77081E001C0880FDA95EAF70E947B
:10251000E60BC4CFC77081E001C0880FCA95EAF707
:10252000F6CFA0E0B0E0E7E9F2E10C94971F7C0160
:10253000FC018481811511F161E0C7010E94D5057C
:10254000EC0183379C4791F5F7018581811531F0C6
:1025500080918D028115B9F00E94F00E8091990250
:102560008770811559F0F7018581811539F08091C7
:102570009B0282FF03C082E00E944903CDB7DEB711
:10258000E8E00C94B31F10929202809193028111A3
:10259000109293020E945E0788579C4E90938F0280
:1025A00080938E0281E080938D02D8CF80918D023E
:1025B000811509F4AAC000919202109193020E9421
:1025C0005E0788579C4E90938F0280938E02F7018E
:1025D0008581811509F499C0102B1D79111181C0D5
:1025E000C115F0E5DF07F0F4C11520E4D20708F0CB
:1025F00080C0C63ED105E9F1CE01905281159042CE
:1026000008F07DC0F7018681803108F45FC0CE01FB
:10261000992710929C028D329105A9F482E0809353
:102620009C0271C0C43BF2E5DF0719F108F041C01C
:10263000C03432E5D307B8F4C11582E5D807C8F431
:1026400010929C02CE018E32910508F06BC0883248
:10265000910508F056C08E31910508F054C00497DA
:102660004A97E0F23EC0CE018056924580349105F3
:1026700038F7F7018581811509F402C410929002A0
:102680009E0130572332310508F0E3C384E090E027
:102690000E94FA1F90939B0280939A02FE01E150E0
:1026A000F047E232F10508F060C0E758FF4D0C94A6
:1026B000D81FC03E92E5D90720F4C03CE2E5DE0712
:1026C000BECFCE0187579C470297D2CF8D2F8F71F7
:1026D000843179F248F48D2F8F70823039F4109262
:1026E0009C020E94F00E11C08631F8CF0E94F00EBD
:1026F000C0CFF7018681803108F089CFBACFCE01F3
:1027000088CF8A9771F70E94E70AF7018581FE0159
:10271000E851FC47E730F10508F0ABCFE556FF4D37
:102720000C94D81F8C34910571F38D329240EACF0E
:1027300026E241EE61EE0E94341210CF27E245EE10
:1027400065EEF9CF26E241EE60EEF5CF27E245EEE9
:1027500064EEF1CF26E241EE62EEEDCF27E245EEE8
:1027600066EEE9CF28E241E0EBCF80919A028160EA
:1027700080939A0260919A0270919B0284E090E0AB
:102780000E942E200E94ED0BE9CE80919B02886072
:1027900080939B02EFCF80919A028260E9CF809173
:1027A0009A028460E5CF80919A028860E1CF80919F
:1027B0009B028160EDCF80919B028260E9CF809186
:1027C0009A028061D5CF80919A028062D1CF8091A8
:1027D0009A028064CDCF0E94ED0B80919A028068AE
:1027E000C7CF80919A028C60C3CF80919B02836097
:1027F000CFCF80919A028E7FBBCF80919B02877F43
:10280000C7CF80919A028D7FB3CF80919A028B7F40
:10281000AFCF80919A02877FABCF80919B028E7F52
:10282000B7CF80919B028D7FB3CF80919A028F7E2C
:102830009FCF80919A028F7D9BCF80919A028F7B50
:1028400097CF0E94ED0B80919A028F7791CF809164
:102850009A02837F8DCF80919B028C7F99CF80914C
:102860009A02992782FF939590FB82F990FB83F956
:102870007FCF80919B02982F909590FB80F990FBE1
:1028800081F986CF90919A02892F8F7B96FF806481
:102890006FCF0E94ED0B90919A02892F97FB87F9D9
:1028A000805866CF61E08EE090E00E94102062CFF9
:1028B00060E0F9CF90919A02892F8F7E94FF80611A
:1028C00057CF90919A02892F8E7F90FF816050CFD1
:1028D00090919B02892F877F93FF886059CF89E26F
:1028E000CAC289E2D8C29E01205E3245203231053B
:1028F000A8F481112AC0CF7181E090E09C0102C050
:10290000220F331FCA95E2F7E901622F83E090E0BE
:102910000E941020CE010E94AB0220CE8115A9F0AA
:10292000CA353CE7D30709F483C008F05BC0C13067
:102930009CE7D90709F47AC0C330ECE7DE0709F455
:102940006FC0C115DC4709F45EC0F70185810081C5
:102950001181811509F470C0C8010E94A105C82F1A
:10296000682FC8010E94D702B8018C2F0E949003E3
:102970000E949E04D82FC92FF701D580C680C2942B
:102980008FE0C8228091990287708115F9F00D2D92
:10299000D114E9F0892F807F803461F080E28D0FBF
:1029A0008830A0F0892F807E803221F4D23070F000
:1029B000C11461F080919B0282FF08C082E00E94F6
:1029C000490380919902877001E0811100E0EC2FAA
:1029D000E295EF70C03C08F095C0F0E0EE55FF4D79
:1029E0000C94D81FCB352CE7D20721F180919B02A4
:1029F000002482FF0394802DCC35DC4709F0A5CF5D
:102A00000E94D00AA2CF0E94ED0B8FEF94E3ECE07E
:102A100081509040E040E1F700C000000E9494081F
:102A20006FEF7FEF80E090E00E942E200E941E0C4E
:102A300081E0E6CF80E0E4CFC8010E940C03C82FFC
:102A400093CF1C2F1F70C03110F01295107FD1143E
:102A5000B9F0111569F080E28D0F883010F0D111B6
:102A600009C080919202812B809392020E94E70A12
:102A70008D2F40C080919C02812B80939C02F6CFC9
:102A80008D2F0E94A90B1115E9F180E28D0F88307E
:102A900010F0D11104C0812F0E94880306C0109548
:102AA00080919C02812380939C020E94E70A2AC0A5
:102AB0001C2F1F70C07FC03211F01295107FD115EE
:102AC00049F0D13009F46BC0D11409F477C0C114B6
:102AD000C9F1CECF80919B0282FD30C0D11469F044
:102AE000111539F080919202812B809392020E94FD
:102AF000E70A80E00E94390B05C080E00E94A90B24
:102B00001111C9CF0115A9F08091990280FD11C062
:102B1000F70115828695869586950E94B502C701B4
:102B20000E949112809199028695869586950E94C1
:102B3000C50260E0C7010E94D50520CDD11499F0EF
:102B4000C11004C0812F0E94DC0BDCCFF1E0CF125A
:102B5000D9CF80919302912F9823191799F2812B45
:102B600080939302CFCFC110CDCF812F0E94E60B6F
:102B700090919302812F8923811529F0812F8095CF
:102B800089238093930280919402912F9823911529
:102B900009F4B8CF1095182310939402B3CFD11431
:102BA00029F026E0C21608F0ADCFCCCF35E0C31631
:102BB00008F0A8CF812F0E94E60BA4CFC114D1F357
:102BC000D93349F48FEF97EEE3E081509040E04035
:102BD000E1F700C000008D2F0E94A90B93CF8C2F2E
:102BE000869586958370811569F0813009F08ACFCA
:102BF0008D2F9C2F9370D11002C080E090E00E9436
:102C0000D50680CF8D2F9C2F9370D11002C080E00D
:102C100090E00E94AF0676CF6D2D8D2F0E94920717
:102C200071CF8C2F8370811142C0D1102FC04D2FD6
:102C3000429546954770440F440F2D2F2F7030E07A
:102C4000042E02C0220F331F0A94E2F780E090E0C6
:102C5000D4FF09C08FE090E002C0880F991F4A9509
:102C6000E2F780959095C695C695C370C230B1F0D5
:102C7000C33089F04091950250919602C13049F0DD
:102C8000822B932B842395230E94AB020E949E06E5
:102C900039CF242B352B822B932BF6CF822B932BE2
:102CA000209195023091960282279327EDCFD1147F
:102CB00091F1C0FFEBCF4D2F429546954770440FE1
:102CC000440F2D2F2F7030E0042E02C0220F331F2F
:102CD0000A94E2F780E090E0D4FF09C08FE090E032
:102CE00002C0880F991F4A95E2F780959095C69586
:102CF000C695C370C230B9F0C33091F040919702CD
:102D000050919802C13051F0822B932B842395234C
:102D10000E94B002BBCF823070F6B8CF242B352B87
:102D2000822B932BF5CF822B932B209197023091FE
:102D3000980282279327ECCFCF70D11439F08C2FD3
:102D40000E94B5028D2F0E94DC0BA0CF8D2F0E9418
:102D5000E60B8C2F0E94C50299CFD23FB1F170F4DF
:102D6000D03FC9F0D13F91F0D11409F45EC0C11435
:102D700009F458C08D2F0E94390B88CFD33F61F1E1
:102D8000D43F91F790919B0292FD34C08C2F8F71AC
:102D9000D11401F31EC0D114A9F0F5E0CF1608F04C
:102DA00075CFCF7181E090E09C0102C0220F331FEC
:102DB000CA95E2F7E90180919702909198028227E3
:102DC0009D27A6CF36E0C316EACF8C2F8F71D11086
:102DD000C1CF0E94B5025ACF80E090E0D11409F42F
:102DE00097CFCF7181E090E002C0880F991FCA95FC
:102DF000E2F78ECFD11461F08C2F8F7192FFE9CF63
:102E0000982F990F990F990F936090939902E1CFA2
:102E100081E00E94490382E0C81608F437CF0E947F
:102E2000490334CF8C2F8F71D4CFC11479F0D933AB
:102E300049F49FEFE7EEF3E09150E040F040E1F716
:102E400000C000008D2F0E94A90B20CF8C2F8F7106
:102E500081CFC631FCE7DF0709F045CD80919202B2
:102E60008A7A91E0811101C090E0909391028115DE
:102E700009F435CD85E30E94FB060E94E70A6ECB7C
:102E8000C6312CE7D20709F02ECD80919102811531
:102E900009F427CD85E30E942F07EFCF8091DD0253
:102EA000803178F48091DC02811559F0E0919E0226
:102EB00020919D023091D8024091D70257E02E1305
:102EC00001C008956E2F70E05E9FF0011124DF01B4
:102ED000A156BD4F14968C911497811561F11196EE
:102EE0008C911197831327C08C91841324C015965D
:102EF0008C91159781111FC012968D919C91A09174
:102F0000D902B091DA028A1B9B0B883C910598F498
:102F10008091DD028F7080618093DD02EB55FD4F63
:102F200080818F708061808387ED92E00E94911292
:102F30000E943F030895FB013196E770C0CFADE0DA
:102F4000B0E0E5EAF7E10C94921F8C0186E0F8010D
:102F5000DE01189601900D928A95E1F7F801F5804F
:102F6000C48087ED882E82E0982E7090DB0271106D
:102F700020C0C114D9F0F11409F41CC1C8010E9489
:102F80000406811509F416C187E0F801D401019007
:102F90000D928A95E1F7F1E0CF1206C08091D70239
:102FA0009091D8020E94F5050E944E17FF24F394D9
:102FB00054C0E080A280B380D090DC028091D9021E
:102FC0009091DA029501281B390BD11409F4BAC08B
:102FD000283C310508F090C0C11441F39091D8020B
:102FE000C1808091DD02803108F058C0C91214C040
:102FF0009091D7029E1110C0F1104AC08F7080616D
:103000008093DD0287ED92E00E9491128091DD02B3
:10301000F8018683F12C21C0F1103AC040E06C2DFC
:103020008E2D0E94110A40E06C2D8E2D0E94110AF7
:10303000F82E8111EFCF888599850E94F505292FFB
:1030400022952F70903470F49F702230A0F091156B
:10305000B1F0F8019681903190F48F2D2D96EDE02E
:103060000C94AE1F2A5F2F70223068F0C8010E94B6
:103070009112FD2CF2CF911511F0811571F3805E44
:10308000883058F3F3CF803F40F3815F8330F9CF2E
:103090008091DD0281608093DD02BCCFC91207C040
:1030A0009091D7029E1103C0F11409F46CC0C801BD
:1030B0000E940406811509F47DC0F11409F47AC058
:1030C0008091DD02803278F02091D7023091D802D1
:1030D0003A832983BC82AB827D821E828F83CE019C
:1030E00001960E94911287E0F801A7EDB2E00190ED
:1030F0000D928A95E1F758CF8091DD02803150F42E
:1031000087ED92E00E94911287E0F40111928A9576
:10311000E9F780CFC11409F449CF2091D8029181F9
:103120002913C5CF9091D7029E11C1CFF110BFCF07
:103130008683C8010E94911287E0F40111928A955A
:10314000E9F734CF283C3105F8F6C11409F42ECF45
:10315000F11481F19091D8028181981321C080915E
:10316000D7028E111DC08091DD0280FD10C080311C
:1031700070F08683807F803F39F08681982F907F22
:10318000905F8F70892B8683C8010E94911287E01F
:10319000F801A7EDB2E001900D928A95E1F706CF14
:1031A000C8010E94040681119ECF8091DD028160DA
:1031B0008093DD02C8010E949112F8CEABE1B0E02D
:1031C000E4EEF8E10C949B1F4E8B5F8B688F798F38
:1031D0008A8F192F9B8F911110929C021D8A86E075
:1031E000FE017696DE011F9601900D928A95E1F719
:1031F0000A8D011539F00B8B1C8B61E0CE010F9607
:103200000E94D5050B8B1C8B87E0FE013F96DE01EB
:10321000189601900D928A95E1F7CE0108960E94CA
:103220009F17811128C020919D0230919E0287E056
:10323000FE013896DE01119601900D928A95E1F714
:103240008C858115C1F0822F90E0019687709927B7
:1032500038171906D9F097E0929FD0011124A15692
:10326000BD4FFE01319601900D929A95E1F7809342
:103270009D020E943F0317E080919E0290919D0263
:10328000891312C06B96E4E00C94B71F0E94ED0BFB
:1032900010929D0210929E0287E0E7EDF2E0DF01BE
:1032A0001D928A95E9F7E7CF189FC0011124815636
:1032B0009D4F0E949F17811529F380919E0290E0F7
:1032C00001968770992780939E02D6CFA6E0B0E042
:1032D000ECE6F9E10C949B1F0E945E078C01809143
:1032E0004002909141028017910779F019821A8269
:1032F0000E945E07BC0149815A8180E090E00E94F3
:10330000DE1810934102009340022696E4E00C94EC
:10331000B71FCDB7DEB72A970FB6F894DEBF0FBE42
:10332000CDBF85B7806885BF85B7806885BF84B706
:10333000877F84BF0FB6F894A8958091600088615C
:1033400080936000109260000FBE80E890E00FB69E
:10335000F89480936100909361000FBE81E08093A8
:103360002E0180E396E09093A9018093A8010E942A
:103370004E090E94B6098091E20084608093E200C9
:103380007894809102028115A1F08091E900D0909B
:10339000EC008F70D794DD24D794D82A1092E900DE
:1033A0008091E80083FD0E94340C8D2D8F708093F6
:1033B000E90082E084BD93E095BD9AEF97BD8093CC
:1033C0006E0010923C0210923D0210923E0210924A
:1033D0003F028091D80080618093D8002AE12A952D
:1033E000F1F700C08091D900982F9170D92E80FDFF
:1033F00004C00E944E0910920202D0923A0280E06C
:1034000090E00E94FA1F853E9E4F11F00E94FE0E32
:103410008EE090E00E94F21F91E0811101C090E0E7
:1034200090933B029093000180913A0281110E9497
:103430002B1E809100018091000191E08927880F67
:10344000880F8093FF0194E0981B9093FE0184E91C
:103450000E94320686E60E94320687E90E94320602
:1034600086EC0E94320663E3C62E61E0D62E79E335
:10347000A72E71E0B72EF60181916F018F3F11F0F9
:103480000E943206AC14BD04B1F788E0E3E0F2E03C
:10349000DF01282F1D922A95E9F7E6EFF1E0DF0121
:1034A0001D928A95E9F780E090E00E94FA1F853E20
:1034B0009E4F11F00E94FE0E82E090E00E94F21FEB
:1034C00080930B0284E090E00E94FA1F90939B028D
:1034D00080939A020E94690FEFEFF6E721E0E15036
:1034E000F0402040E1F700C000000E94690FE09129
:1034F0003B0281E0E827EE0FEE0FF0E0ED5FFD4FBD
:10350000808181FF08C06FEF7FEF80E090E00E9434
:103510002E200E94940883E090E00E94F21F90E029
:103520000E94AB0280913A02811102C00E942E1EBD
:1035300081E091E09093630280936202CE01019654
:1035400048E1642E712C5BE0852E52E0952E8F832E
:1035500098878091020220E4D22E32E1C32E85307A
:1035600009F480C00E94690F8CE0C82E82E0D82E3A
:1035700093E0A92E92E0B92ED501F60191918D919B
:1035800022E0E431F20709F477C09817B9F380918B
:103590003A028A87512CD5014D905D01F601819147
:1035A0006F01841549F184258987312C22242394C5
:1035B000898582218115C9F0FA85F115B1F039822A
:1035C0005A820E945E079C838B8321E02D8391E0C9
:1035D000842D8221811101C090E09E8349815A810E
:1035E0006B817C818D810E94DE183394220C86E0F1
:1035F0003812DECFF6014292539498E05912CBCFA5
:103600000E9463083DC080910202843009F110924B
:1036100000020FB6F894A895609260000FBED09299
:10362000600083B7817F846083BF83B7816083BF7D
:103630007894889583B78E7F83BF0FB6F894A8954A
:1036400080916000886180936000109260000FBEDE
:103650000E94690FE3E0F2E08191811109C18E16A9
:103660009F06D1F780910202853009F4CCCF0E94E9
:10367000ED0B0E949E0676CF981389CF0E946619A3
:1036800080913A02811589F080918D02811569F04F
:103690000E945E0720918E0230918F02821B930B55
:1036A0008F3F9F4710F40E94F00E86E0E7E8F2E0BB
:1036B000AF81B88501900D928A95E1F7409088021C
:1036C000B0908902D0908A02A0908B02C0908C02A8
:1036D0001092890210928A0210928B0210928C0230
:1036E0008D2D8B29811509F43FC080911602909190
:1036F00017020E9485088C0180918502811509F4CA
:10370000B2C00531110580F18F3F19F08F5F8093B2
:103710008502B11459F00E94590691E01B140CF077
:103720009FEF899F802D112480938902D11459F035
:103730000E94590691E01D140CF09FEF899F802D87
:10374000112480938A0280918902811569F050903A
:103750008A02511449F00E944B0680938902852DFC
:103760000E944B0680938A028C2D8A29811509F4C8
:1037700040C080911402909115020E9485087C013E
:1037800080918402811509F468C0B1E5EB16F1045B
:1037900080F18F3F19F08F5F80938402A11459F05C
:1037A0000E94790691E01A140CF09FEF899F802DFA
:1037B000112480938B02C11459F00E94790691E084
:1037C0001C140CF09FEF899F802D112480938C0294
:1037D00080918B02811569F0A0908C02A11449F0B0
:1037E0000E944B0680938B028A2D0E944B06809389
:1037F0008C0280918802841119C080918902811500
:1038000011F08B1113C020918A02211511F0D212F0
:103810000DC090918C02911511F0C91207C0309122
:103820008B02311103C0822B892B81110E946A0700
:1038300086E0EF81F885A7E8B2E001900D928A95C5
:10384000E1F70E949E0690911802891709F481CE33
:10385000809318020E9457087CCEEBE0EE16F1042C
:1038600008F099CFC6CF0B30110508F04FCF7CCFB1
:1038700080910102811509F4F5CE80E189BDC9BCB2
:1038800009B400FEFDCF8091D8008F7D8093D800D1
:103890008091E00082608093E0008091E00081FDF3
:1038A000FCCF0E94ED0BDECE1F921FB61F9211249B
:1038B0008F939F93AF93BF9380910002811113C0A8
:1038C0008091210290912202A0912302B0912402C2
:1038D0004196A11DB11D8093210290932202A093D5
:1038E0002302B0932402BF91AF919F918F911F90BB
:1038F0001FBE1F90189578941F921FB61F92112417
:103900008F939F93AF93BF93809121029091220256
:10391000A0912302B09124020196A11DB11D8093B4
:10392000210290932202A0932302B0932402BF911C
:10393000AF919F918F911F901FBE1F9018951F925E
:103940000F920FB60F9211242F933F934F935F93D3
:103950006F937F938F939F93AF93BF93EF93FF9357
:103960008091E10082FF09C08091E20082FF05C0E2
:103970008091E1008B7F8093E1008091DA0080FFED
:1039800024C08091D80080FF20C08091DA008E7F13
:103990008093DA008091D90080FFA9C080E189BDC1
:1039A00082E189BD09B400FEFDCF81E0809302026F
:1039B0008091E101811109C00E944E090E94B6095F
:1039C0008091E20084608093E2008091E10080FFBA
:1039D0001AC08091E20080FF16C08091E2008E7FC5
:1039E0008093E2008091E20080618093E200809108
:1039F000D80080628093D80019BC85E080930202D1
:103A000083E080932E018091E10084FF2FC080919C
:103A1000E20084FF2BC080E189BD82E189BD09B449
:103A200000FEFDCF8091D8008F7D8093D8008091DB
:103A3000E1008F7E8093E1008091E2008F7E809391
:103A4000E2008091E20081608093E2008091E001D9
:103A5000811509F452C084E0809302028091020231
:103A6000843009F052C082E080932E018091E10001
:103A700083FF2CC08091E20083FF28C08091E10089
:103A8000877F8093E10082E0809302021092E00140
:103A90008091E1008E7F8093E1008091E2008E7F33
:103AA0008093E2008091E20080618093E20042E036
:103AB00060E080E00E9486098091F0008860809339
:103AC000F00081E080932E0180932D01FF91EF9112
:103AD000BF91AF919F918F917F916F915F914F9126
:103AE0003F912F910F900FBE0F901F90189519BC0A
:103AF000109202021092E10168CF8091E30087FFEB
:103B000002C083E0A9CF81E0A7CF81E0ADCF1F92B3
:103B10000F920FB60F921124EF92FF920F931F9303
:103B20002F933F934F935F936F937F938F939F93C5
:103B3000AF93BF93CF93EF93FF9309EE10E0F8019B
:103B40008081C091EC008F70C795CC27C795C82B9A
:103B5000108280EFE82EF12CF7018081877F80832F
:103B600078940E94340CF8011082F70180818860FB
:103B70008083CF70F801C083FF91EF91CF91BF9107
:103B8000AF919F918F917F916F915F914F913F91F5
:103B90002F911F910F91FF90EF900F900FBE0F90FC
:103BA0001F9018958EE14A9B02C08A95E1F74A9BC7
:103BB000FECF08955A9880E28A95F1F75A9A0895AF
:103BC000FC013BE03A95F1F798E020E080E031E03D
:103BD00040E14A95F1F7880F4A9B02C08160232794
:103BE00042E04A95F1F7000040E14A95F1F79A95D5
:103BF00079F790E19A95F1F799B132E03A95F1F7BA
:103C0000000040E14A95F1F792FB992790F992273D
:103C10002081920F90830895A1E0B0E0E2E1FEE1FF
:103C20000C94991F19828C017C01E60EF11C0E94F4
:103C3000D21DCE0101960E94E01DF80181938F01F3
:103C4000EE15FF05A1F781E09981911180E02196A1
:103C5000E6E00C94B51F529A5A9A089552985A9ACF
:103C6000EA9AE9E6F0E080818F7C808308956150D4
:103C7000770B91E001C0990F6A95EAF7692F90E000
:103C800021E0611108C0911599F05A9A80E28A9555
:103C9000F1F75A980895362F3823311539F05A9A8A
:103CA000922730E23A95F1F76695EBCF5A98F9CF23
:103CB0005A98ECCFFF920F931F93CF93DF93EC01B1
:103CC0008C01060F111DF9900E94DA1D68E08F2DFE
:103CD0000E94371EC017D107B1F7CDB7DEB7E5E0B8
:103CE0000C94B61F1F920F920FB60F9211240F93D0
:103CF0001F932F933F934F935F936F937F938F9374
:103D00009F93AF93BF93EF93FF93CF93DF930F9264
:103D1000CDB7DEB719820E94D21DCE0101960E9456
:103D2000E01D082F069506950695982F929595709B
:103D3000202F2570920F292F237096959695920F1C
:103D4000982797708981892B811509F05CC005300F
:103D500008F059C080E18A95F1F75A9A529A82E0A8
:103D60008A95F1F700C05A9888E0089F80011124D5
:103D7000D801A55FBE4F1696ED91FC91179730972D
:103D8000A9F06091390170913A0114962D913C91FE
:103D90001597260F371F11968D919C911297680FDA
:103DA000791F13964C9113978C910995F801E55F53
:103DB000FE4F6381611551F02091390130913A0134
:103DC00084819581820F931F0E945A1E0E94DA1DE2
:103DD00080E18A95F1F75A9852985A9A80E18A952B
:103DE000F1F7F801E55FFE4F6081611551F0209118
:103DF000390130913A0181819281820F931F0E9493
:103E00000C1E0E94D21D0F90DF91CF91FF91EF9178
:103E1000BF91AF919F918F917F916F915F914F91E2
:103E20003F912F911F910F910F900FBE0F901F90F8
:103E300018950F931F93CF93DF938C0105970CF088
:103E400064C0F894529A5A9885E08A95F1F7000078
:103E5000C02FC695C570802F8570C80F8C2F8370BA
:103E6000C695C69593E0000F111F9A95E1F7C80F0C
:103E7000C8018C2BEC010E94DA1D00C068E08C2F79
:103E80000E94371E90E19A95F1F752985A9A4A9BF0
:103E900035C087E090E04A9933C0F801E55FFE4FF6
:103EA0006381611561F02091390130913A0184817B
:103EB0009581820F931F0E940C1E811519F10E949B
:103EC000D21D80E28A95F1F75A98529A90E19A951C
:103ED000F1F7F801E55FFE4F6081611551F0209127
:103EE000390130913A0181819281820F931F0E94A2
:103EF0005A1E0E94DA1D789481E008C000C0C7CF26
:103F0000019749F4529A5A9A789480E0DF91CF91C0
:103F10001F910F91089500C0BECF2F923F924F92F4
:103F20005F926F927F928F929F92AF92BF92CF9249
:103F3000DF92EF92FF920F931F93CF93DF93CDB752
:103F4000DEB7CA1BDB0B0FB6F894DEBF0FBECDBFCA
:103F500009942A88398848885F846E847D848C849B
:103F60009B84AA84B984C884DF80EE80FD800C81A4
:103F70001B81AA81B981CE0FD11D0FB6F894DEBF87
:103F80000FBECDBFED01089597FB072E16F40094E8
:103F900007D077FD09D00E94DE1F07FC05D03EF454
:103FA000909581959F4F0895709561957F4F0895E5
:103FB000EE0FFF1F0590F491E02D0994AA1BBB1B87
:103FC00051E107C0AA1FBB1FA617B70710F0A61B19
:103FD000B70B881F991F5A95A9F780959095BC013A
:103FE000CD010895F999FECF92BD81BDF89A992728
:103FF00080B50895A8E1B0E042E050E00C9436208E
:10400000DC01A40FB51F4150504048F0CB01840F94
:10401000951F2E910E94112041505040D0F70895D5
:10402000262FF999FECF92BD81BDF89A019700B471
:10403000021639F01FBA20BD0FB6F894FA9AF99A11
:104040000FBE08950396272F0E9411200E94102072
:10405000252F0E941120242F0C9411200196272F28
:104060000E9411200C941020DC01CB01FC01F99975
:10407000FECF06C0F2BDE1BDF89A319600B40D92B4
:1040800041505040B8F70895FB01DC0104C08D9108
:104090000190801921F441505040C8F7881B990BBA
:1040A0000895FB01DC0102C001900D924150504087
:1040B000D8F70895F894FFCF9E07A607A907AF0782
:1040C000C407C407C407C407C407C407C407C40798
:1040D000B207B707BB07C107D207D807DC07150D22
:1040E0003B0D410D3B0D410D940DB60D410DB40E30
:1040F000C10EF91361140114CB13CF130514D3139C
:1041000009141514DF135A14E3131914E7131D14BB
:104110004214EB1321144914F11327142F14D7134D
:104120000D14DB131114F5132B14391452145814F5
:10413000C513FD136814A213A61398139E13AA1394
:10414000AE13B2132115211558155815EF150C167D
:0C4150008215821511169C16AD16AD16D6
:10415C00015B076A0A810A880A8F0A0000000100C5
:10416C000000000000000401000000040500000035
:10417C000000000409000000000000000001009491
:10418C006697C6F4F5F6F731332502E200E900EA4A
:10419C0000B500B600B700CD008301CC008A0192B7
:1041AC000194012102230224022502260227022A5D
:1041BC0002B300B4006F0070009F01CB019F02A0FE
:1041CC0002E200E900EA00B500B600B700CD0083BA
:1041DC0001CC008A019201940121022302240225C0
:1041EC0002260227022A02B300B4006F0070009F5F
:0841FC0001CB019F02A00200AB
:00000001FF
